:1000000010C08DC529C028C05DC519C500C5E7C48D
:1000100023C062C521C020C01FC01EC01DC01CC09F
:100020001BC011241FBECFE5D2E0DEBFCDBF10E064
:10003000A0E6B0E0E0E7FBE002C005900D92A43935
:10004000B107D9F720E0A4E9B0E001C01D92A83BB8
:10005000B207E1F72ED08AC5D3CFFC01928192304E
:1000600029F160F49923A9F0913039F48081882333
:10007000D1F0158281E0868308950895933021F0B0
:10008000943031F41482138281E08583868308954D
:1000900008958081882321F081E085831682089568
:1000A0001582168208951582168208951582168289
:1000B0000895CF93DF931F92CDB7DEB71ABA17BA60
:1000C0001BBA8FEF88BB8BB38F608BBB8AB38F60FB
:1000D0008ABB87B3836087BBD798DF9A009A019A5F
:1000E000CF9BFECFE199FECF90E080E029D5E3EAF7
:1000F000F0E083708583178216861086178692E05B
:100100009187908B13861286128A118A24EA3CE228
:10011000338322831482168285B78C7F826085BFE9
:100120008BB780648BBF1FBC8BE18EBD12BC2CE6ED
:1001300030E035BD24BD24E130E03BBD2ABD39BDF2
:1001400028BD1DBC1CBC80E28CB9619A629A90BF2C
:1001500093BF12BE89E686BF89B7826089BF1092BD
:10016000A200789485B7877E806185BF0DE910E095
:10017000412C612C0F2EF4EACF2EFCE2DF2EF02D65
:100180000F2EF0E1AF2EF7E2BF2EF02D4982562C54
:10019000EE24EA940BC4019790939C0080939B00FB
:1001A00061C3158223813481C901892F99278295E2
:1001B0008F70432F552784279527FFE08F27A901AC
:1001C000529542954F7045275F70452784279527A4
:1001D0008F7099272F702817190609F047C388B325
:1001E0008E7F826088BBB0929C00A0929B00F80139
:1001F00023813481832F82958F70837033FD8460D7
:10020000F801238134819091A80098132FC3809125
:10021000A5009091A600E3EAF0E09183808336FD8B
:100220003DC0832F877009F4BAC0813009F48BC1B7
:1002300032FF66C0EAEAF0E030FF02C0E1EBF0E036
:10024000832F881F8827881F9091A9004F2D98170A
:1002500019F08093A900492DC901929582958F705C
:1002600089279F7089278F7031FF6AC21092A7007B
:1002700090E0825C9E4F8F939F93089599C1A7C190
:10028000AEC1BBC1C4C1EBC111C215C219C225C2E6
:1002900028C22BC231C236C239C248C29092A700CE
:1002A000F901F295E295EF70EF27FF70EF27EF70FD
:1002B000F0E0EE0FFF1FE559FF4F80818093AB0008
:1002C00081818093AC00E091AB00F0E0E557FF4FF7
:1002D00080818093AA00E32FEF70F0E0EE0FFF1F04
:1002E000E559FF4F80818093B20081818093B300F4
:1002F000E091B200F0E0E557FF4F80818093B100BC
:100300008091AC00882309F42FC28091AC002F2C7F
:10031000813009F429C28091B300882309F432C2E4
:100320008091B3003F2C813009F42CC28AEA90E01E
:1003300094DE81EB90E091DE8091AF00882309F498
:100340002FC281EF9091B000911182609091B60020
:10035000911184609091B700911188609FB722201D
:1003600009F420C24091AA0050E07CEF332009F448
:100370001DC22091B10030E063EFF89450939A00D1
:1003800040939900709362003093980020939700F7
:10039000609361008093960078949FBF67C2832F1B
:1003A000881F8827881F9091A900981709F4A8CF63
:1003B0008093A900329522952F7023273F70232721
:1003C0002F70223009F453C0E0F0263009F472C0D7
:1003D000273009F495CF243009F093C01092A7007C
:1003E0008091B200811158C07092B200E091B200C9
:1003F000F0E0E557FF4F80818093B1001092B30089
:100400007FCF222321F1213009F07BC01092A70079
:100410008091AB00873008F073CF8091AB008F5F85
:100420008093AB00E091AB00F0E0E557FF4F808197
:100430008093AA008091AC00813009F461CF809153
:10044000AC00882309F45CCF1092AC0059CF109215
:10045000A7001092AB00E091AB00F0E0E557FF4F32
:1004600080818093AA0084E08093AC0049CF1092F1
:10047000A7008091AB00882309F442CF8091AB00A4
:1004800081508093AB00E091AB00F0E0E557FF4F67
:1004900080818093AA0034CF1092B200E091B20024
:1004A000F0E0E557FF4F80818093B10082E08093B8
:1004B000B30026CF8091A80082FF21C08370809373
:1004C000A8001092AA001092B1001092AB001092F6
:1004D000B20082E08093AC008093B3001092AE0033
:1004E0001092AD001092B5001092B400D092A60008
:1004F000C092A5001092A7001092A90001CF8460BD
:10050000DECF8091A8008093A8001092AA001092DC
:10051000B1001092AB001092B20082E08093AC0068
:100520008093B3001092AE001092AD001092B5000F
:100530001092B400D092A600C092A5001092A7001D
:100540001092A900DDCE329522952F7023273F709F
:1005500023279092A700E22FE370F0E0EE0FFF1F39
:10056000ED59FF4F80818093AB0081818093AC0077
:10057000E091AB00F0E0E557FF4F80818093AA0047
:1005800026952695E22FE370F0E0EE0FFF1FED5960
:10059000FF4F80818093B20081818093B300E0910E
:1005A000B200F0E0E557FF4F80818093B100A8CE04
:1005B000442309F4A5CE8281811104C011821082E6
:1005C00082829ECE71822CE62083128299CE4423B1
:1005D00009F496CE8281882361F0813061F0442352
:1005E00009F48ECE80818C3608F08ACE8F5F8083AE
:1005F00087CE9282F7CF1282F5CF442309F480CEC2
:100600008081882309F47CCE8150808379CE442375
:1006100009F476CE8281823068F012828F2D8F5F4E
:100620008183811110C0A181B0E0A557BF4F8C918B
:10063000808366CE8181873018F49281992379F383
:100640008181882331F09281913069F781508183D3
:10065000EACF8281813039F791821282E4CF44233C
:1006600009F44ECE8281823060F092828F2D8F5FAE
:100670008183811114C08281811111C09182928283
:100680000EC08181873018F49281913081F381818D
:10069000882389F39281911102C081508183A181C5
:1006A000B0E0A557BF4F8C9180832ACE71824CE673
:1006B0004083128225CE71828CE68083928220CE86
:1006C000442309F41DCE71822CE62083828181119E
:1006D00002C0928215CE128213CE85E0828395826B
:1006E0000FCE85E0828315820BCE442309F408CE19
:1006F0008581882329F0158285E08283968200CE49
:100700009582FACF85E082831682FACD442309F4DC
:10071000F7CD8681882341F0168285E0828371823D
:100720004CE640839282ECCD9682F7CF442309F4C5
:10073000E7CD8281813099F7118210828282E0CDEB
:10074000A82FB0E0AA0FBB1FA559BF4F8C91818382
:1007500011969C919283A82FB0E0A557BF4F8C9122
:1007600080831092A700CCCD8091AA002F2C8823E3
:1007700009F4D1CD8091AA00292C8C3609F0CBCD7B
:100780002F2CC9CD8091B1003F2C882309F4CECD08
:100790008091B100392C8C3609F0C8CD3F2CC6CDE4
:1007A00080EFD0CD4981552D7E2DE0CD2981352D8D
:1007B0006E2DE3CDF0929500F8018181813049F0F2
:1007C00030F0823089F01182F801128253C0918298
:1007D000FBCF8281893030F082E0818310821482E5
:1007E0001382F2CF1182F0CF82819DEF980F973064
:1007F000B0F4863028F08381948181609483838370
:10080000F80180818F5F8083803139F0838194810A
:10081000880F991F94838383D7CF8182D5CF11828C
:10082000D3CFE3EAF0E080819181892B21F480919C
:10083000A700811144C08091AC00843009F454C0F9
:100840008091B300843009F464C0CF9B77C080915D
:100850009B0090919C00009709F09DCC88B38D7F00
:10086000816088BBF801858181119BCC80919500C6
:100870008111A0CF80919400882399F2F092940086
:100880008091AD009091AE0001969093AE00809360
:10089000AD008091B4009091B50001969093B500A1
:1008A0008093B400E3EAF0E080819181892B09F420
:1008B000B8CF80819181019791838083B2CF1092CC
:1008C000A70082E08093AC008093B3001092AB004D
:1008D0001092B200E0926200E09261008091960076
:1008E000807F80939600A7CF8091AD009091AE005D
:1008F000803D974008F4A4CF82E08093AC00109232
:10090000AB00809196008C7F80939600E09262000D
:1009100097CF8091B4009091B500803D974008F446
:1009200094CF82E08093B3001092B2008091960041
:10093000837F80939600E092610087CF9FB6F89402
:1009400080E0CF9904C08536E0F78F5FFACF9091B1
:10095000A8008436B8F19370F92EF092A800109296
:10096000AA001092B1001092AB001092B20082E087
:100970008093AC008093B3001092AE001092AD0053
:100980001092B5001092B400D092A600C092A500BB
:100990001092A7001092A900E0926200E09261001C
:1009A00080919600807F809396009FBEF12C9924C1
:1009B00093940F2EF7E07F2EF02D0F2EF3E08F2E65
:1009C000F02D45CFF090A800F3944F2D4370F42EF6
:1009D000E199FECF6F2D842D962DBAD0BECF1F92F8
:1009E0000F920FB60F9211242F938F939F938091A4
:1009F0006100209160009BB3822389238BBB9F9170
:100A00008F912F910F900FBE0F901F9018951F92EE
:100A10000F920FB60F9211242F938F939F93809173
:100A20006200209160009BB3822389238BBB9F913E
:100A30008F912F910F900FBE0F901F9018951F92BE
:100A40000F920FB60F9211248F939F938EB5887FCC
:100A50008EBD8BB390919600807F9F70892B8BBB4E
:100A60008091990090919A009BBD8ABD80919700DA
:100A70009091980099BD88BD90916200809161002D
:100A8000981789F08FEF8093600081E090E09DBD22
:100A90008CBD8EB583608EBD9F918F910F900FBEE0
:100AA0000F901F90189580916200909161008923AA
:100AB000809360008091970090919800019699BD75
:100AC00088BDE3CF1F920F920FB60F9211240F90A3
:100AD0000FBE0F901F90189578941F920F920FB62B
:100AE0000F9211248F939F9380919F008C3030F050
:100AF00090919E00933079F010929E008F5F8093CA
:100B00009F0081E0809394009F918F910F900FBE82
:100B10000F901F90189591E09093A200EDCF7894DC
:100B20001F920F920FB60F9211248F9312BE81E085
:100B3000809395008F910F900FBE0F901F90189586
:100B4000E199FECF9FBB8EBBE09A99278DB30895A4
:100B5000262FE199FECF1CBA9FBB8EBB2DBB0FB6D3
:100B6000F894E29AE19A0FBE01960895F894FFCFA7
:100B7000FFFFFF000207000701000400020100025E
:100B8000000300040005000600070000040701063A
:100B90000105010401030102010101001A2734418A
:040BA0004E5B6C003C
:00000001FF
