:100000000EC028C527C0C6C4D8C424C023C022C07F
:1000100021C020C0FCC41EC0F0C41CC01BC01124E1
:100020001FBECFE5D2E0DEBFCDBF10E0A0E6B0E05E
:10003000E6EAFAE002C005900D92A239B107D9F7BD
:1000400020E0A2E9B0E001C01D92A13BB207E1F7B8
:1000500002D027C5D5CFCF93DF9300D0CDB7DEB781
:1000600088E187BB18BAB898C09A80B5816080BD16
:1000700080B5826080BDB09BFECFE199FECF90E05D
:1000800080E0F9D483708983E199FECF81E090E02C
:10009000F2D48170282EECE9F0E049814583178283
:1000A00016861086178692E09187908B13861286AB
:1000B000128A118A24EA3CE2338322831482168254
:1000C00085B78C7F826085BF8BB780648BBF86E4E9
:1000D00080BF89ED8DBD1EBC1FBC89B7846089BF00
:1000E00089B7806489BF9ABD93BF12BE89E689BD76
:1000F00089B7806189BF10929B00789485B7877E0D
:10010000806185BF0F2EF6E94F2EF0E05F2EF02DB7
:100110000F2EF4EAAF2EFCE2BF2EF02D612C33241B
:100120003A94FCC31582838194819C01232F332749
:1001300022952F70492F552724273527FFE02F2799
:10014000AC01529542954F7045275F704527242793
:1001500035272F7033278F708217130609F05CC381
:10016000F20183819481292F22952F70237093FDB2
:100170002460F201838194813091A10032134CC339
:1001800020919E0030919F00ECE9F0E031832083C4
:1001900096FD3EC0292F277009F491C0213009F443
:1001A00066C192FF6BC023EA30E090FF02C02AEAEA
:1001B00030E0492F441F4427441F5091A200862C51
:1001C000451719F04093A200892CAC015295429535
:1001D0004F7045275F7045274F7091FF6BC210929B
:1001E000A000842F90E088509F4F8F939F93089595
:1001F00076C186C18EC19CC1A6C1D4C101C207C24D
:100200000DC21BC21FC223C22AC230C234C247C29F
:100210009092A0009C01329522952F7023273F7069
:1002200023272F7030E0220F331F27593F4FF9014A
:1002300080818093A40081818093A5002091A400F7
:1002400030E027573F4FF90180818093A300892F29
:100250008F7090E0880F991F87599F4FFC01208174
:100260002093AB0081818093AC008091AB0090E043
:1002700087579F4FFC0180818093AA00FB018081FA
:10028000882309F430C28081262D813009F42BC2E5
:10029000FB018081823009F46AC208F031C28823F0
:1002A00009F452C2813009F036C2F60180818823F8
:1002B00009F458C2F8011082F70190822CC2292F4C
:1002C000221F2227221F3091A2002317B9F2209368
:1002D000A200929582958F7089279F7089278F70D1
:1002E000823009F456C0E8F0863009F477C08730D0
:1002F00029F2843009F099C01092A0008091AB00DF
:1003000081115DC0F7E0F093AB008091AB0090E00D
:1003100087579F4FFC0180818093AA001092AC0008
:10032000ADCF882329F1813009F07FC01092A00061
:100330008091A400873008F0A1CF8091A4008F5F46
:100340008093A4008091A40090E087579F4FFC0108
:1003500080818093A3008091A500813009F48ECF25
:100360008091A500882309F489CF1092A50086CF3B
:100370001092A0001092A4008091A40090E08757F2
:100380009F4FFC0180818093A30084E08093A500AF
:1003900075CF1092A0008091A400882309F46ECF3D
:1003A0008091A40081508093A4008091A40090E0EB
:1003B00087579F4FFC0180818093A3005FCF1092ED
:1003C000AB008091AB0090E087579F4FFC0180818C
:1003D0008093AA0082E08093AC0050CF8091A1006E
:1003E00082FF21C083708093A1001092A30010921D
:1003F000AA001092A4001092AB0082E08093A500A6
:100400008093AC001092A7001092A6001092AE004C
:100410001092AD00B0929F00A0929E001092A0009A
:100420001092A2002BCF8460DECF8091A100809338
:10043000A1001092A3001092AA001092A4001092A2
:10044000AB0082E08093A5008093AC001092A700DF
:100450001092A6001092AE001092AD00B0929F00D4
:10046000A0929E001092A0001092A20007CF929539
:1004700082958F7089279F7089279092A000282FDE
:10048000237030E0220F331F2F593F4FF901908125
:100490009093A40091819093A5002091A40030E056
:1004A00027573F4FF90190819093A3008695869539
:1004B000837090E0880F991F8F599F4FFC01208116
:1004C0002093AB0081818093AC008091AB0090E0E1
:1004D00087579F4FFC0180818093AA00CFCE882050
:1004E00009F4CCCEF9018281811104C011821082FD
:1004F0007282C4CE47E0418389ED80831282BECEF2
:10050000882009F4BBCEF9018281882369F081300B
:1005100069F0882009F4B2CEF9018081893D08F0A4
:10052000ADCE8F5F8083AACE9282F6CF1282F4CFB7
:10053000882009F4A3CEF9018081882309F49ECE96
:10054000815080839BCE882009F498CEF901828166
:10055000823088F01282862D8F5FF90181838111AC
:1005600014C0F901818190E087579F4FFC01808181
:10057000F901808383CE8181873018F49281992399
:1005800059F3F9018181882339F0F9019281913081
:1005900041F781508183E5CF8281813011F79182CB
:1005A0001282DFCF882009F469CEF901828182307E
:1005B00070F09282862D8F5FF9018183811116C0C0
:1005C000F9018281811112C0918292820FC08181D2
:1005D000873018F49281913071F3F9018181882379
:1005E00079F39281911102C081508183F901818157
:1005F00090E087579F4FFC018081F90180833ECEB8
:1006000047E0F901418389ED8083128237CE47E0CC
:10061000F901418389ED8083928230CE882009F4EC
:100620002DCE47E0F901418389ED808382818111DC
:1006300002C0928223CE128221CE85E0F90182830C
:1006400095821CCE85E0F9018283158217CE882021
:1006500009F414CEF9018581882331F0158285E0F3
:10066000F901828396820ACE9582F9CF85E0F9015D
:100670008283168203CE882009F400CEF901868198
:10068000882359F0168285E0F901828347E0F90159
:10069000418389ED80839282F1CD9682F4CF8820C8
:1006A00009F4ECCDF9018281813081F71182108249
:1006B0007282E4CD842F90E0880F991F87599F4F55
:1006C000FC014081F9014183FC018181F9018283B0
:1006D000842F90E087579F4FFC018081F901808330
:1006E0001092A000CBCDF6018081262D882309F43D
:1006F000CFCD8081292D893D09F0CACD262DC8CDC9
:10070000833029F0843039F411961C921E92F8013E
:100710009082F7019082F8018081882369F18FEE41
:10072000F7019081911180619FB7222339F1F60181
:10073000308127EEF89430939500209360008093E9
:10074000940078949FBF68C0F6018081882329F0C7
:10075000F8019082F7011082DECFF8011082F701D4
:100760001082D9CFF8011082F7011082D4CFF8019E
:100770001082F7011082CFCF87EED2CF362D232DF6
:10078000D9CF60929300F2018181813049F030F03D
:10079000823089F01182F201128242C09182FBCF35
:1007A0008281893030F082E081831082148213824A
:1007B000F2CF1182F0CF82819DEF980F9730B0F485
:1007C000863028F083819481816094838383F20151
:1007D00080818F5F8083803139F083819481880F9D
:1007E000991F94838383D7CF7182D5CF1182D3CFC2
:1007F000ECE9F0E080819181892B21F48091A000C7
:10080000811127C0FB0180818430B1F1B09B48C0C9
:10081000F2018581811186CC809193008111B1CF45
:1008200080919200882321F3609292008D919C9197
:100830001197019611969C938E93ECE9F0E08081DC
:100840009181892BA9F28081918101979183808385
:10085000CFCF1092A00082E08093A5008093AC00DF
:100860001092A4001092AB0030926000809194002E
:10087000877E80939400C6CF8D919C911197803D87
:10088000974020F282E0FB018083E981FA811082A7
:1008900080919400877E8093940030926000B6CF60
:1008A0000FB7F89480E0B09904C08536E0F78F5F09
:1008B000FACF1091A100843608F461C081E02826A7
:1008C000E199FECF1370622D81E090E0DCD01093AF
:1008D000A1001092A3001092AA001092A4001092FE
:1008E000AB0082E08093A5008093AC001092A7003B
:1008F0001092A6001092AE001092AD00B0929F0030
:10090000A0929E001092A0001092A200309260006F
:1009100080919400877E809394000FBF822D90E099
:10092000FC01EE0FFF1FEE0FFF1FEE0FFF1FE81B76
:10093000F90BE456FF4FBF01675F7F4F8F01045FE4
:100940001F4F7F012DE0E20EF11C01966C01CC0CD3
:10095000DD1CCC0CDD1CCC0CDD1CC81AD90AC60170
:1009600084569F4F6C0199249394DF011A960F2EA1
:10097000F3E07F2EF02D3896FA83E98349CF10916A
:10098000A1001F5F1370E199FECF612F90E080E01E
:100990007AD09DCF1F920F920FB60F9211248F9392
:1009A0009F939091600088B3892388BB9F918F911A
:1009B0000F900FBE0F901F9018951F920F920FB6B9
:1009C0000F9211248F939F9380B7807F80BF88B34D
:1009D00090919400877E9871892B88BB80919500B7
:1009E0008EBD81E08FBD80B7866080BF9F918F9163
:1009F0000F900FBE0F901F9018951F920F920FB679
:100A00000F9211240F900FBE0F901F90189578949D
:100A10001F920F920FB60F9211248F939F93809184
:100A200098008C3030F090919700933079F01092CC
:100A300097008F5F8093980081E0809392009F9150
:100A40008F910F900FBE0F901F90189591E090938B
:100A50009B00EDCF78941F920F920FB60F92112446
:100A60008F9312BE81E0809393008F910F900FBE01
:100A70000F901F901895E199FECF9FBB8EBBE09A17
:100A800099278DB30895262FE199FECF1CBA9FBBFD
:100A90008EBB2DBB0FB6F894E29AE19A0FBE019679
:060AA0000895F894FFCF59
:100AA600FF00020700070100040002010002000324
:100AB6000004000500060007000004070106010502
:100AC6000104010301020101010036516C87A2BD38
:020AD600D90045
:00000001FF
