:1000000010C0DFC429C028C0AFC46BC452C439C4F7
:1000100023C0B4C421C020C01FC01EC01DC01CC04E
:100020001BC011241FBECFE5D2E0DEBFCDBF10E064
:10003000A0E6B0E0E4E1FAE002C005900D92A43938
:10004000B107D9F720E0A4E9B0E001C01D92A83BB8
:10005000B207E1F72ED0DCC4D3CFFC0192819230FD
:1000600029F160F49923A9F0913039F48081882333
:10007000D1F0158281E0868308950895933021F0B0
:10008000943031F41482138281E08583868308954D
:1000900008958081882321F081E085831682089568
:1000A0001582168208951582168208951582168289
:1000B00008951ABA17BA1BBA8FEF88BB8BB38F603B
:1000C0008BBB8AB38F608ABB87B3836087BBD798AB
:1000D000DF9A009A019ACF9BFECFE199FECF90E084
:1000E00080E080D4E3EAF0E083708583178216868F
:1000F0001086178692E09187908B13861286128A5B
:10010000118A24EA3CE2338322831482168285B763
:100110008C7F826085BF8BB780648BBF1FBC8BE1F7
:100120008EBD12BC2CE630E035BD24BD24E130E0AC
:100130003BBD2ABD39BD28BD1DBC1CBC80E28CB9AD
:10014000619A629A90BF93BF12BE89E686BF89B753
:10015000826089BF1092A200789485B7877E806103
:1001600085BF0DE910E0EF01512C312C0F2EF4EA80
:10017000CF2EFCE2DF2EF02D452C232C99249A94CF
:1001800066C3019790939C0080939B00E0C2158208
:1001900023813481C901892F992782958F70432F3C
:1001A000552784279527FFE08F27A901529542956F
:1001B0004F7045275F704527842795278F709927B3
:1001C0002F702817190609F0C6C288B38E7F826087
:1001D00088BB20E137E230939C0020939B00F8011C
:1001E00083819481392F32953F70337093FD346051
:1001F000F801838194812D812313ADC24A815B81F3
:100200005983488396FD3DC0F92FF770BF2E09F43E
:100210009EC021E0F21709F441C192FF5BC0EAEAF7
:10022000F0E090FF02C0E1EBF0E0292F221F22272F
:10023000221F3E814A2D321711F02E834E2DDC01F4
:10024000B295A295AF70AB27BF70AB27AF7091FF8F
:1002500012C21C828A2F90E08F5C9E4F8F939F93D7
:10026000089548C155C15CC168C171C197C1BDC184
:10027000C0C1C3C1CEC1D1C1D4C1DAC1DFC1E2C1E5
:10028000F0C1EC82FC01F295E295EF70EF27FF7070
:10029000EF27EF70F0E0EE0FFF1FE559FF4F808171
:1002A000888721812987E82FF0E0E557FF4F80817B
:1002B0008F83E92FEF70F0E0EE0FFF1FE559FF4F3E
:1002C00080818F879181988BE82FF0E0E557FF4F71
:1002D00080818E878985FA2C823008F4A1C08889B4
:1002E000BA2C823008F47BC08AEA90E0B6DE81EB5B
:1002F00090E0B3DE8C85882309F4CFC181EF9D8522
:10030000911182609B89911184609C899111886010
:100310007FB7FF2009F4C3C14F8150E06CEFBB20D1
:1003200009F4C1C12E8530E093EFF89450939A0000
:100330004093990060936200309398002093970057
:10034000909361008093960078947FBF04C2AC01C3
:10035000529542954F7045275F704527342F3F7067
:10036000F32E892F881F8827881F9E81981709F4EC
:10037000B1CF8E8342E0341709F45DC04317A8F073
:100380003323C1F181E03817D9F11F821E86188608
:100390001F8682E08987888B1B861A861A8A198AAB
:1003A000DB82CA821C821E8275C096E0391709F46E
:1003B0005EC0E7E03E1709F48DCFF4E03F13E5CFD0
:1003C0001C828F85811144C07F868E86188A89851C
:1003D000FB2C823008F088CFFF80F11025C0BE844E
:1003E000BB2009F481CF8E2D4CE6B41201C08A2DBA
:1003F000B82E7ACF1C8218861F8284E089876FCF3F
:100400001C82E885E73008F065CFEF5FE887F0E011
:10041000E557FF4F80818F838985823008F01986E8
:10042000FF80FF2009F45BCF8E2D3CE6F31201C064
:100430008A2DF82E54CF1C82E885EE2309F44ACF8A
:10044000E150E887F0E0E557FF4F80818F8342CF8E
:100450001F861E8682E0888B8985FB2C823008F0FF
:1004600043CFFF80BF2CFF2009F43ECFDDCF22FF1A
:1004700013C023702D831F821E8618861F8682E07C
:100480008987888B1B861A861A8A198ADB82CA8218
:100490001C821E82FB2C28CF2460ECCF9295829583
:1004A0008F7089279F708927EC82E82FE370F0E036
:1004B000EE0FFF1FED59FF4F90819887218129870B
:1004C000E92FF0E0E557FF4F90819F838695869551
:1004D000E82FE370F0E0EE0FFF1FED59FF4F808132
:1004E0008F879181988BE82FF0E0E557FF4F80814F
:1004F0008E87F0CE442309F4EDCE8281811104C0B1
:10050000118210826282E6CE718280821282E2CEF5
:10051000442309F4DFCE8281882329F0813059F009
:10052000411102C0D7CEE28280818C3608F0D2CE53
:100530008F5F8083CFCE1282F7CF442309F4CACED7
:100540008081882309F4C6CE81508083C3CE4423A2
:1005500009F4C0CE8281823060F012828A2D8F5FD2
:100560008183811114C08281813089F4E1821282F9
:100570000EC08181873018F49281992381F38181A3
:10058000882389F39281913011F481508183A18174
:10059000B0E0A557BF4F8C9180839CCE442309F4D3
:1005A00099CE8281823060F0E2828A2D8F5F8183D2
:1005B000811114C08281811111C0E182E2820EC0DA
:1005C0008181873018F49281913081F38181882371
:1005D00089F39281911102C081508183A181B0E0A1
:1005E000A557BF4F8C91808375CE71828082128215
:1005F00071CE71828082E2826DCE442309F46ACE8C
:10060000718280828281811102C0E28263CE128275
:1006100061CE85E08283E5825DCE85E082831582AE
:1006200059CE442309F456CE8581882329F01582BA
:1006300085E08283E6824ECEE582FACF85E0828332
:10064000168248CE442309F445CE8681882339F0AA
:10065000168285E0828371828082E2823BCEE682CE
:10066000F8CF442309F436CE82818130A1F711827C
:10067000108262822FCEB0E0AA0FBB1FA559BF4FD8
:100680008C91818311969C919283A82FB0E0A557FD
:10069000BF4F8C9180831C821DCE80EF30CE442DC5
:1006A000522D692D3CCE242D322D992D3ECEA09277
:1006B0009500F8018181813049F030F0823089F075
:1006C0001182F80112824BC0E182FBCF8281893016
:1006D00030F082E08183108214821382F2CF118283
:1006E000F0CF82819DEF980F9730B0F4863028F0DC
:1006F00083819481816094838383F80180818F5FFB
:100700008083803111F46182DCCF83819481880FF2
:10071000991F94838383D5CF1182D3CF8881998108
:10072000892BA9F18985843009F444C088898430F3
:1007300009F451C0CF9B60C080919B0090919C00B8
:10074000009709F01ECD88B38D7F816088BBF801CA
:10075000858181111CCD809195008111A8CF809158
:1007600094008823D9F2A09294008A859B850196F3
:100770009B878A8789899A8901969A8B898B888138
:100780009981009721F0019799838883C7CF8C8145
:10079000882341F21C8282E08987888B18861F8615
:1007A000909262009092610080919600807F809389
:1007B0009600C0CF8A859B85803D974008F4B6CFD0
:1007C00082E089871886809196008C7F80939600BE
:1007D00090926200ABCF89899A89803D974008F456
:1007E000A9CF82E0888B1F8680919600837F8093BB
:1007F0009600909261009ECFF89420E0CF9908C0B7
:1008000088EE9DEF0197F1F72536C0F72F5FF6CF01
:100810008D81243660F18370F82EFD821F821E8642
:1008200018861F8682E08987888B1B861A861A8A1B
:10083000198ADB82CA821C821E8290926200909288
:10084000610080919600807F809396007894EE24DA
:10085000E394A12C0F2EF7E07F2EF02D0F2EFCE657
:100860008F2EF02D0F2EF3E06F2EF02D65CF8F5FC2
:100870008370F82EE199FECF6F2D852D932DBAD080
:10088000CCCF1F920F920FB60F9211242F938F93FC
:100890009F9380916100209160009BB38223892304
:1008A0008BBB9F918F912F910F900FBE0F901F9038
:1008B00018951F920F920FB60F9211242F938F93BA
:1008C0009F9380916200209160009BB382238923D3
:1008D0008BBB9F918F912F910F900FBE0F901F9008
:1008E00018951F920F920FB60F9211248F939F931A
:1008F0008EB5887F8EBD9BB3809196008F70907F60
:10090000892B8BBB8091990090919A009BBD8ABDE9
:10091000809197009091980099BD88BD9091620058
:1009200080916100981789F08FEF8093600081E0DB
:1009300090E09DBD8CBD8EB583608EBD9F918F91E3
:100940000F900FBE0F901F901895809162009091AC
:1009500061008923809360008091970090919800B6
:10096000019699BD88BDE3CF1F920F920FB60F92EB
:1009700011240F900FBE0F901F90189578941F921E
:100980000F920FB60F9211248F939F9380919F0027
:100990008C3030F090919E00933079F010929E0050
:1009A0008F5F80939F0081E0809394009F918F914F
:1009B0000F900FBE0F901F90189591E09093A2009A
:1009C000EDCF78941F920F920FB60F9211248F9350
:1009D00012BE81E0809395008F910F900FBE0F9013
:1009E0001F901895E199FECF9FBB8EBBE09A992787
:1009F0008DB30895262FE199FECF1CBA9FBB8EBB05
:100A00002DBB0FB6F894E29AE19A0FBE01960895B5
:040A1000F894FFCF88
:100A1400FFFFFF00020700070100040002010002BB
:100A24000003000400050006000700000407010697
:100A34000105010401030102010101001A273441E7
:040A44004E5B6C0099
:00000001FF
