:100000000EC081C553C5D7C4E9C424C023C022C0D3
:1000100021C020C055C51EC0F9C41CC01BC011247E
:100020001FBECFE5D2E0DEBFCDBF10E0A0E6B0E05E
:10003000E4EFFBE002C005900D92A239B107D9F7B9
:1000400020E0A2E9B0E001C01D92A53BB207E1F7B4
:1000500012D0CEC5D5CFFC01148282E08187808B7F
:10006000108617868FEF809360008091B4008C7F9C
:100070008093B400089584B7877F84BF88E181BDF1
:1000800081E681BD83E187BB18BABA98C29ABB9852
:10009000C39A80B5816080BD80B5826080BD85B720
:1000A0008F7D85BFE199FECF90E080E08BD5C82F92
:1000B000C370E199FECF81E090E084D5182F1170D4
:1000C000EFE9F0E0C583178216861086178692E066
:1000D0009187908B13861286128A118A24EA3CE259
:1000E000338322831482168285B78C7F826085BF1A
:1000F000C49A8BB780648BBF86E480BF89ED8DBDC9
:100100001EBC1FBC89B7846089BF89B7806489BF62
:100110009ABD93BF12BE89E689BD89B7806189BF48
:1001200010929E007894C9E9D0E0CC24CA940F2E96
:10013000FCEF7F2EF02DBB24B3940F2EF7E09F2E03
:10014000F02D0F2EF9EDAF2EF02D0F2EF3E06F2EC8
:10015000F02D0F2EF5E08F2EF02D0F2EFDEA4F2EF5
:10016000F0E05F2EF02D0F2EF6EA2F2EF0E03F2E5E
:10017000F02D02E00F2EF4EAEF2EFCE2FF2EF02D20
:1001800074C3F89488B38C7F816088BBB39BFECF27
:1001900088B38C7F88BB109298008FE990E05BDF7A
:1001A000789465C31D822B813C81C901892F9927D1
:1001B00082958F70432F5527842795274FE08427FA
:1001C000A901529542954F7045275F7045278427B6
:1001D00095278F7099272F702817190609F04AC3A1
:1001E0002B813C81832F82958F70837033FD8460D7
:1001F0002B813C819091A40098133CC310929800ED
:10020000EFE9F0E0428153815183408336FD3AC0EB
:10021000832F877009F4A8C0813009F438C132FFF8
:1002200066C0F10130FDF201832F881F8827881FE7
:100230009091A50040E0891719F08093A5004B2DFF
:10024000C901929582958F7089279F7089278F7039
:1002500031FF15C21092A30090E08E5C9E4F8F93E9
:100260009F9308954FC15CC163C170C179C19FC1A3
:10027000C5C1C8C1CBC1D6C1D8C1DAC1E0C1E4C1D2
:10028000E6C1F3C1DF01B482F901F295E295EF70A6
:10029000EF27FF70EF27EF70F0E0EE0FFF1FE75939
:1002A000FF4F808118968C931897918119969C9393
:1002B0001997E82FF0E0E757FF4F808117968C934E
:1002C0001797E32FEF70F0E0EE0FFF1FE759FF4F96
:1002D00080811F968C931F97918150969C93509785
:1002E000E82FF0E0E757FF4F80811E968C93812F17
:1002F00090E0FC01EE0FFF1FEE0FFF1FEE0FFF1F40
:10030000E81BF90BE156FF4F318520E0323008F44D
:10031000CAC1323009F473C208F0DEC1332309F4D4
:1003200033C2313009F0F6C1AC014F5F5F4FFA01C3
:10033000EE0FFF1FEE0FFF1FEE0FFF1FE41BF50B6D
:10034000E156FF4F3081332309F44BC2FC01EE0F1D
:10035000FF1FEE0FFF1FEE0FFF1FE81BF90BE1560B
:10036000FF4F1486B586D6C1832F881F8827881F24
:100370004091A500841709F4BACF8093A500329567
:1003800022952F7023273F7023272F70223009F4E6
:1003900043C0D0F0263009F463C0273009F4A7CF5A
:1003A000243009F44DC0EFE9F0E01782168610867C
:1003B00017860187008B13861286128A118AF382B0
:1003C000E2821482168293CF2223F1F0213059F772
:1003D000EFE9F0E01482E085E73008F088CFEF5FC6
:1003E000AFE9B0E01896EC931897F0E0E757FF4FAD
:1003F000808117968C93179719968C91823008F408
:1004000076CF1092A80073CFEFE9F0E01482108647
:10041000178284E081876BCFEFE9F0E01482E085FA
:10042000EE2309F464CFE150AFE9B0E01896EC9305
:100430001897F0E0E757FF4F808117968C9357CFBE
:10044000EFE9F0E014828785811104C09786A686C3
:10045000108A4DCFEFE9F0E017861686008B47CF64
:1004600092FF13C09370EFE9F0E095831782168630
:10047000108617860187008B13861286128A118ACE
:10048000F382E2821482168232CF9460ECCF3295EE
:1004900022952F7023273F702327AFE9B0E01496F1
:1004A000BC921497E22FE370F0E0EE0FFF1FEF59BC
:1004B000FF4F808118968C931897918119969C9381
:1004C0001997E82FF0E0E757FF4F808117968C933C
:1004D000179726952695E22FE370F0E0EE0FFF1FA9
:1004E000EF59FF4F80811F968C931F9791815096F3
:1004F0009C935097E82FF0E0E757FF4F80811E96BE
:100500008C93F5CE442309F4F2CE8281811104C08C
:10051000118210826282EBCE9182A0821282E7CE9B
:10052000442309F4E4CE8281882361F0813061F0B4
:10053000442309F4DCCE8081893D08F0D8CE8F5F5A
:100540008083D5CEB282F7CF1282F5CF442309F44F
:10055000CECE8081882309F4CACE81508083C7CE55
:10056000442309F4C4CE8281823060F0128280E09C
:100570008F5F8183811114C08281813089F4B182BF
:1005800012820EC08181873018F49281992381F301
:100590008181882389F39281913011F48150818384
:1005A000A181B0E0A757BF4F8C918083A0CE442398
:1005B00009F49DCE8281823060F0B28280E08F5F4C
:1005C0008183811114C08281811111C0B182B282F4
:1005D0000EC08181873018F49281913081F381813E
:1005E000882389F39281911102C081508183A18176
:1005F000B0E0A757BF4F8C91808379CE9182A082C3
:10060000128275CE9182A082B28271CE442309F407
:100610006ECE9182A0828281811102C0B28267CEA9
:10062000128265CE8282B58262CE828215825FCED0
:10063000442309F45CCE8581882321F015828282CF
:10064000B68255CEB582FBCF8282168250CE44232D
:1006500009F44DCE8681882331F016828282918200
:10066000A082B28244CEB682F9CF442309F43FCEB1
:1006700082818130A1F711821082628238CEA82F48
:10068000B0E0AA0FBB1FA759BF4F8C918183119671
:100690009C919283A82FB0E0A757BF4F8C91808385
:1006A0001092A30024CEAC014F5F5F4FFA01EE0F12
:1006B000FF1FEE0FFF1FEE0FFF1FE41BF50BE156B0
:1006C000FF4F2081222309F424CE4B2D293D11F028
:1006D000242F1FCE40E0FCCF333079F03430D1F4FA
:1006E000FC01EE0FFF1FEE0FFF1FEE0FFF1FE81BB9
:1006F000F90BE156FF4F13861286FC01EE0FFF1F28
:10070000EE0FFF1FEE0FFF1FE81BF90BE156FF4F27
:10071000B486B586FC01EE0FFF1FEE0FFF1FEE0F34
:10072000FF1FE81BF90BE156FF4F3485332309F413
:1007300074C03DEFFC01EE0FFF1FEE0FFF1FEE0F29
:10074000FF1FE81BF90BE156FF4F45854111326051
:100750004FB7222309F463C00196FC01EE0FFF1F7F
:10076000EE0FFF1FEE0FFF1FE81BF90BE156FF4FC7
:100770009081872DF8949093970080936000309338
:10078000B40078944FBF76C0AC014F5F5F4FFA0161
:10079000EE0FFF1FEE0FFF1FEE0FFF1FE41BF50B09
:1007A000E156FF4F3081332371F0FC01EE0FFF1F44
:1007B000EE0FFF1FEE0FFF1FE81BF90BE156FF4F77
:1007C000B4861586A7CFFC01EE0FFF1FEE0FFF1FAB
:1007D000EE0FFF1FE81BF90BE156FF4F148615863D
:1007E00099CFFC01EE0FFF1FEE0FFF1FEE0FFF1F53
:1007F000E81BF90BE156FF4F148615868BCFFC01E1
:10080000EE0FFF1FEE0FFF1FEE0FFF1FE81BF90B90
:10081000E156FF4F148615867DCF3CEF8BCF90E0DD
:100820008C2DA8CF80919500813009F448C082308A
:1008300009F457C080919F009091A000892B21F46A
:100840008091A30081118DC0812F90E0FC01EE0FFB
:10085000FF1FEE0FFF1FEE0FFF1FE81BF90BE15606
:10086000FF4F2185243009F480C0B39B8ACC8D8151
:10087000811198CC809196008823E1F21092960025
:10088000812F90E0FC01EE0FFF1FEE0FFF1FEE0F18
:10089000FF1FE81BF90BE156FF4F828593850196F8
:1008A0009387828780919F009091A000009709F420
:1008B000B9CF01979093A00080939F00B3CF00938E
:1008C00095001092940010929300B2993AC08091D2
:1008D00093009091940001969093940080939300DC
:1008E000A9CFB29BF4CF8091930090919400803671
:1008F000910538F1F894809193009091940084339D
:10090000954210F11B258091A4008370D82EE199A7
:10091000FECF612F81E090E05DD1EFE9F0E0D5827C
:1009200017821686108617860187008B138612861B
:10093000128A118AF382E28214821682CF018BDB43
:1009400078941092950076CFD090A400D3944D2D3A
:100950004370D42EE199FECF6D2D90E080E03AD126
:10096000DCCF8FE990E077DB6FCFFC01EE0FFF1F4C
:10097000EE0FFF1FEE0FFF1FE81BF90BE156FF4FB5
:1009800022853385203D374008F46FCFFC01EE0F00
:10099000FF1FEE0FFF1FEE0FFF1FE81BF90BE156C5
:1009A000FF4F018710868091B4008C7F8093B40044
:1009B000C09260005ACF1F920F920FB60F9211246F
:1009C0008F939F939091600088B3892388BB9F91F8
:1009D0008F910F900FBE0F901F9018951F920F923E
:1009E0000FB60F9211248F939F9398B38091B40008
:1009F00083709C7F892B88BB809197008EBD9F91CF
:100A00008F910F900FBE0F901F9018951F920F920D
:100A10000FB60F9211242F933F934F935F936F93D1
:100A20007F938F939F93AF93BF93EF93FF938091A7
:100A300098008F5F80939800803188F4FF91EF9148
:100A4000BF91AF919F918F917F916F915F914F91E6
:100A50003F912F910F900FBE0F901F9018958FE927
:100A600090E0F9DA8BB78F7B8BBFC49898B38091F5
:100A7000B40083709C7F892B88BBC29898E095BB9B
:100A80008BB780628BBF28E121BD11BC85B7877E03
:100A9000806185BF85B7806285BF7894889585B76A
:100AA0008F7D85BFF89421BD91BDFFCF1F920F921E
:100AB0000FB60F9211240F900FBE0F901F90189534
:100AC00078941F920F920FB60F9211248F939F93D9
:100AD00080919B008C3030F090919A00933079F0A7
:100AE00010929A008F5F80939B0081E08093960024
:100AF0009F918F910F900FBE0F901F90189591E0CE
:100B000090939E00EDCF78941F920F920FB60F92A4
:100B100011248F939F93EF93FF9312BE80919500C2
:100B2000811103C081E08093950080919A0081300B
:100B3000A1F078F0823001F110929A0010929B009F
:100B4000FF91EF919F918F910F900FBE0F901F908B
:100B5000189581E080939A00F1CF80919B008930B5
:100B600040F0E9E9F0E082E0818310821482138290
:100B7000E5CF10929A00E2CF80919B009DEF980FF5
:100B80009730E8F4863038F0E9E9F0E08381948129
:100B9000816094838383E9E9F0E080818F5F8083C3
:100BA000803149F0E9E9F0E083819481880F991F51
:100BB00094838383C3CF83E080939A00BFCF109246
:100BC0009A00BCCFE199FECF9FBB8EBBE09A9927DC
:100BD0008DB30895262FE199FECF1CBA9FBB8EBB23
:100BE0002DBB0FB6F894E29AE19A0FBE01960895D4
:040BF000F894FFCFA7
:100BF400FF000207000701000400020100020003D5
:100C040000040005000600070000040701060105B2
:100C14000104010301020101010036516C87A2BDE8
:020C2400D900F5
:00000001FF
