:1000000010C0A3C629C074C620C6E6C5CDC5B4C5F8
:1000100023C078C621C020C01FC01EC01DC01CC088
:100020001BC011241FBECFE5D2E0DEBFCDBF10E064
:10003000A0E6B0E0E8E3FEE002C005900D92A4392E
:10004000B107D9F720E0A4E9B0E001C01D92AA3BB6
:10005000B207E1F740D0EEC6D3CFFC0192819230D7
:1000600029F160F49923A9F0913039F48081882333
:10007000D1F0158281E0868308950895933021F0B0
:10008000943031F41482138281E08583868308954D
:1000900008958081882321F081E085831682089568
:1000A0001582168208951582168208951582168289
:1000B0000895FC01148282E08187808B1086178668
:1000C0008FEF80936200809361008091B900807F00
:1000D0008093B900089584B7877F84BF88E181BD8C
:1000E00081E681BD8FE08ABBD79ABA98C29AB99847
:1000F000C19A009A019A85B78F7D85BFE199FECF9D
:1001000090E080E081D6C82FE199FECF81E090E0B9
:100110007BD6CF3F09F064C08F3F09F061C0E19901
:10012000FECF60E090E080E077D6E199FECF60E01E
:1001300081E090E071D610E0C0E001E00127E4EA40
:10014000F0E0C583178216861086178692E09187A5
:10015000908B13861286128A118A24EA3CE233833A
:1001600022831482168285B78C7F826085BFDF9AD6
:100170008BB780648BBF1FBC8BE18EBD12BC2CE69D
:1001800030E035BD24BD24E130E03BBD2ABD39BDA2
:1001900028BD1DBC1CBC80E28CB9619A629A90BFDC
:1001A00093BF12BE89E686BF89B7826089BF10926D
:1001B000A3007894CEE9D0E0D12CC12C66246A94B7
:1001C000332433940F2EF7E02F2EF02D68947724EC
:1001D00071F80F2EF4EAAF2EFCE2BF2EF02DCDC346
:1001E000C370182F1170A9CFF8948BB38C7F8160E6
:1001F0008BBBB19BFECF8BB38C7F8BBB10929D00D2
:1002000084EA90E056DF7894BAC32B813C81832F37
:1002100082958F70837033FD84602B813C81909137
:10022000A9009813CDC310929D00E4EAF0E082810A
:1002300093819183808336FD42C0832F877009F4B8
:1002400032C1813009F4DFC132FF72C0EBEAF0E065
:1002500030FF02C0E2EBF0E0832F881F8827881F61
:100260009091AA0040E0891719F08093AA00432DCD
:10027000C901929582958F7089279F7089278F7009
:1002800031FFFDC29AEF980F923008F4FBC1109233
:10029000A80090E0815B9E4F8F939F930895F5C1D6
:1002A0000DC219C223C22DC259C285C28DC295C2C8
:1002B000A5C2A8C2ABC2B6C2B9C2BCC2C7C2DF0126
:1002C0003482F901F295E295EF70EF27FF70EF2786
:1002D000EF70F0E0EE0FFF1FE559FF4F8081189699
:1002E0008C931897818119968C9319971896EC9195
:1002F0001897F0E0E557FF4F808117968C9317977A
:10030000E32FEF70F0E0EE0FFF1FE559FF4F808104
:100310001F968C931F97818150968C9350971F96B0
:10032000EC911F97F0E0E557FF4F80811E968C936C
:10033000812E912CF401EE0FFF1FEE0FFF1FEE0F29
:10034000FF1FE819F909EC55FF4F8185412C8230D8
:1003500008F4A9C2E02EF12CF701EE0FFF1FEE0FFB
:10036000FF1FEE0FFF1FEE19FF09EC55FF4F8185B0
:10037000512C823008F4B0C2212F30E02F5F3F4F64
:10038000C901880F991F880F991F880F991F821B19
:10039000930B8C559F4F61DE202F30E02F5F3F4F36
:1003A000C901880F991F880F991F880F991F821BF9
:1003B000930B8C559F4F51DEF401EE0FFF1FEE0F94
:1003C000FF1FEE0FFF1FE819F909EC55FF4F848559
:1003D000882309F49AC281EFF401EE0FFF1FEE0F9C
:1003E000FF1FEE0FFF1FE819F909EC55FF4F958528
:1003F00091118260F701EE0FFF1FEE0FFF1FEE0F4E
:10040000FF1FEE19FF09EC55FF4F94859111846091
:10041000F701EE0FFF1FEE0FFF1FEE0FFF1FEE198C
:10042000FF09EC55FF4F9585911188609FB7A60194
:10043000662D442089F04FEF841A940AF401EE0FE0
:10044000FF1FEE0FFF1FEE0FFF1FE819F909EC5514
:10045000FF4F408150E06CEF9601762D552091F0D2
:100460002FEFE21AF20A9701220F331F220F331FD8
:10047000220F331F2E193F09F901EC55FF4F208140
:1004800030E073EFF89450939C0040939B0060938E
:10049000620030939A0020939900709361008093DA
:1004A000B9009FBF8DC2832F881F8827881F909116
:1004B000AA00891709F43CCF8093AA0032952295AF
:1004C0002F7023273F7023272F70223009F44AC052
:1004D000E0F0263009F47EC0273009F429CF24301B
:1004E00009F453C0E4EAF0E085818583178216861B
:1004F000108617867186708A13861286128A118A70
:10050000B382A2821482168213CF2223F1F021300B
:1005100049F7E4EAF0E014828085873008F008CFDC
:1005200080858F5F8087A085B0E0A557BF4F8C91F5
:1005300087838185813009F4FBCE8091AD008823CB
:1005400009F4F6CE1092AD00F3CEE4EAF0E01482A6
:100550001086A085B0E0A557BF4F8C91878384E0BB
:100560008187E6CEE4EAF0E014828085882309F4EE
:10057000DFCEDF01808581508087E085F0E0E557A0
:10058000FF4F808117968C93D3CEE4EAF0E014827B
:10059000878581110DC0DF012786E785F0E0E557EB
:1005A000FF4F80811E968C931E9750961C92C0CE52
:1005B000A4EAB0E01F961C921F971F96EC911F971C
:1005C000F0E0E557FF4F80811E968C931E97509662
:1005D0007C92AECE8091A90082FF13C08370E4EAC2
:1005E000F0E0858317821686108617867186708ADA
:1005F00013861286128A118AB382A282148216820C
:1006000097CE8460ECCF329522952F7023273F70D0
:100610002327A4EAB0E014963C921497E22FE370EB
:10062000F0E0EE0FFF1FED59FF4F808118968C937D
:100630001897818119968C9319971896EC911897B1
:10064000F0E0E557FF4F808117968C93179726951A
:100650002695E22FE370F0E0EE0FFF1FED59FF4FFC
:1006600080811F968C931F97818150968C93509711
:100670001F96EC911F97F0E0E557FF4F80811E9683
:100680008C9356CE3092A80004CE442309F450CE69
:10069000828181110AC01182A181B0E0A557BF4FAC
:1006A0008C91808383E0828343CE2182A181B0E05C
:1006B000A557BF4F8C91808312823ACE442309F410
:1006C00037CE8281882329F0813009F031CE128221
:1006D0002FCE32822DCE442309F42ACE80818C364F
:1006E00008F026CE80818F5F808322CE442309F4D8
:1006F0001FCE8081882309F41BCE808181508083A6
:1007000017CE442309F414CE8281882329F08281F4
:10071000813011F0128211828181873030F4828120
:10072000811103C081818F5F81838181882369F07A
:100730008281813051F4818181508183A181B0E037
:10074000A557BF4F8C918083F3CD81818111F6CF66
:100750008281813099F731821282F0CF442309F4EB
:10076000E7CD8281882329F08281813011F03282A5
:1007700011828181873030F48281813019F4818146
:100780008F5F81838181882369F0828181110AC012
:10079000818181508183A181B0E0A557BF4F8C91A9
:1007A0008083C6CD81818111F6CF82818111F3CF03
:1007B00031823282F0CF2182A181B0E0A557BF4FB4
:1007C0008C9180831282B4CD2182A181B0E0A557A3
:1007D000BF4F8C9180833282ABCD442309F4A8CDE6
:1007E0002182A181B0E0A557BF4F8C918083828187
:1007F000811102C032829CCD12829ACD95E0928303
:10080000358296CD25E02283158292CD442309F4CA
:100810008FCD8581882321F0158245E0428388CDE4
:100820003582FBCF85E08283368282CD95E092834C
:1008300016827ECD442309F47BCD8681882321F066
:10084000168225E0228374CD3682FBCF442309F43F
:100850006FCD8281813051F41182A181B0E0A55722
:10086000BF4F8C91808343E0428362CD2182A1817E
:10087000B0E0A557BF4F8C918083328259CDA82F0D
:10088000B0E0AA0FBB1FA559BF4F8C918183119671
:100890008C918283A181B0E0A557BF4F8C9180835A
:1008A0001092A80045CDC4010196FC01EE0FFF1F78
:1008B000EE0FFF1FEE0FFF1FE81BF90BEC55FF4F6C
:1008C0004080442009F446CD832D9CE6491611F062
:1008D000482E40CD80E0FCCFC7010196FC01EE0F11
:1008E000FF1FEE0FFF1FEE0FFF1FE81BF90BEC556C
:1008F000FF4F5080552009F43FCD832D2CE6521632
:1009000011F0582E39CD80E0FCCF80EF65CD80917D
:100910009700813009F48CC080919700823009F4EF
:100920008EC08091A4009091A500892B21F4809124
:10093000A8008111D1C0812F90E0FC01EE0FFF1FB4
:10094000EE0FFF1FEE0FFF1FE81BF90BEC55FF4FDB
:100950002185243009F4C4C0802F90E0FC01EE0F03
:10096000FF1FEE0FFF1FEE0FFF1FE81BF90BEC55EB
:10097000FF4F2185243009F4D9C0B19B35CC8D813E
:100980008823F1F01D822B813C81C901892F992791
:1009900082958F70432F5527842795274FE0842712
:1009A000A901529542954F7045275F7045278427CE
:1009B00095278F7099272F702817190609F425CCD1
:1009C00080919800882309F4ACCF10929800812F71
:1009D00090E0FC01EE0FFF1FEE0FFF1FEE0FFF1F59
:1009E000E81BF90BEC55FF4F8285938501969387A1
:1009F0008287802F90E0FC01EE0FFF1FEE0FFF1F9C
:100A0000EE0FFF1FE81BF90BEC55FF4F8285938516
:100A10000196938782878091A4009091A50000970A
:100A200009F475CF01979093A5008093A4006FCF30
:100A300070929700D0929600C09295006DCFB299B7
:100A40000AC080919500909196000196909396002F
:100A50008093950066CF80919500909196008436A2
:100A6000910558F1EFB6F894809195009091960019
:100A70008433954228F1912E93248091A9008370AC
:100A8000F82EE199FECF692D81E090E0C5D1012FCC
:100A9000192DE4EAF0E0F582178216861086178693
:100AA0007186708A13861286128A118AB382A28294
:100AB00014821682CF01FDDAEFBE1092970031CF7B
:100AC000F090A900F3948F2D8370F82EE199FECF5A
:100AD0006F2DC601A1D1DDCF84EA90E0EADA2BCFF9
:100AE000FC01EE0FFF1FEE0FFF1FEE0FFF1FE81BB5
:100AF000F90BEC55FF4F22853385203D374008F434
:100B00002BCFFC01EE0FFF1FEE0FFF1FEE0FFF1F9D
:100B1000E81BF90BEC55FF4F718610868091B900E8
:100B20008C7F8093B9006092620016CFFC01EE0FBB
:100B3000FF1FEE0FFF1FEE0FFF1FE81BF90BEC5519
:100B4000FF4F22853385203D374008F416CFFC0146
:100B5000EE0FFF1FEE0FFF1FEE0FFF1FE81BF90B3D
:100B6000EC55FF4F718610868091B900837F80938A
:100B7000B9006092610001CF1F920F920FB60F92E1
:100B800011242F938F939F93809161002091600097
:100B90009BB3822389238BBB9F918F912F910F90C1
:100BA0000FBE0F901F9018951F920F920FB60F92C5
:100BB00011242F938F939F93809162002091600066
:100BC0009BB3822389238BBB9F918F912F910F9091
:100BD0000FBE0F901F9018951F920F920FB60F9295
:100BE00011248F939F938BB39091B900807F9F7056
:100BF000892B8BBB80919B0090919C009BBD8ABDF3
:100C00008091990090919A0099BD88BD9091620061
:100C100080916100981751F08FEF809360009F9151
:100C20008F910F900FBE0F901F90189580916200CA
:100C30009091610089238093600080919900909148
:100C40009A00019699BD88BDEACF1F920F920FB608
:100C50000F9211242F933F934F935F936F937F9342
:100C60008F939F93AF93BF93EF93FF9380919D00DA
:100C70008F5F80939D0080919D00803188F4FF916B
:100C8000EF91BF91AF919F918F917F916F915F9104
:100C90004F913F912F910F900FBE0F901F9018957D
:100CA00084EA90E006DA8BB78F7B8BBFDF988BB33B
:100CB0009091B900807F9F70892B8BBBC29882E096
:100CC00080BD8BB780628BBF98E191BD11BC85B7A9
:100CD000877E806185BF85B7806285BF789488955F
:100CE00085B78F7D85BFF89491BD88E081BDFFCF2A
:100CF0001F920F920FB60F9211240F900FBE0F90FC
:100D00001F90189578941F920F920FB60F9211248E
:100D10008F939F938091A0008C3030F090919F0032
:100D2000933079F010929F008F5F8093A00081E054
:100D3000809398009F918F910F900FBE0F901F90FE
:100D4000189591E09093A300EDCF78941F920F92A5
:100D50000FB60F9211248F939F93EF93FF9312BEC0
:100D600080919700811103C081E08093970080916A
:100D70009F008130A1F078F0823001F110929F0045
:100D80001092A000FF91EF919F918F910F900FBE55
:100D90000F901F90189581E080939F00F1CF809174
:100DA000A000893040F0EEE9F0E082E0818310821B
:100DB00014821382E5CF10929F00E2CF8091A000B1
:100DC0009DEF980F9730E8F4863038F0EEE9F0E0C8
:100DD00083819481816094838383EEE9F0E0808154
:100DE0008F5F8083803149F0EEE9F0E08381948168
:100DF000880F991F94838383C3CF83E080939F00E0
:100E0000BFCF10929F00BCCFE199FECF9FBB8EBB9E
:100E1000E09A99278DB30895262FE199FECF1CBA49
:100E20009FBB8EBB2DBB0FB6F894E29AE19A0FBE22
:080E300001960895F894FFCF2C
:100E3800FFFFFF0002070007010004000201000293
:100E4800000300040005000600070000040701066F
:100E58000105010401030102010101001A273441BF
:040E68004E5B6C0071
:00000001FF
