:100000000EC0DEC427C07CC48EC424C023C022C05E
:1000100021C020C0B2C41EC0A6C41CC01BC0112475
:100020001FBECFE5D2E0DEBFCDBF10E0A0E6B0E05E
:10003000E2E1FAE002C005900D92A239B107D9F7CA
:1000400020E0A2E9B0E001C01D92A13BB207E1F7B8
:1000500002D0DDC4D5CFCF93DF9300D000D0CDB791
:10006000DEB788E187BB18BAB898C09A80B58160BE
:1000700080BD80B5826080BDB09BFECFE199FECF90
:1000800090E080E0AED483708983E199FECF81E077
:1000900090E0A7D48170382EECE9F0E03981358307
:1000A000178216861086178692E09187908B1386AA
:1000B0001286128A118A24EA3CE233832283148254
:1000C000168285B78C7F826085BF8BB780648BBFBB
:1000D00086E480BF89ED8DBD1EBC1FBC89B78460DE
:1000E00089BF89B7806489BF9ABD93BF12BE89E674
:1000F00089BD89B7806189BF10929B00789485B7CC
:10010000877E806185BF0F2EF6E96F2EF0E07F2E8F
:10011000F02D0F2EF4EA4F2EFCE25F2EF02D812CF5
:1001200022242A94A7C315961C92159713962D91F5
:100130003C91C901892F992782958F70E32FFF2762
:100140008E279F27BFE08B27F901F295E295EF708C
:10015000EF27FF70EF278E279F278F7099272F702B
:100160002817190609F0FFC2F30183819481292F12
:1001700022952F70237093FD2460D30113968D91E7
:100180009C91A091A100A213EEC220919E003091FB
:100190009F00ECE9F0E03183208396FD3DC0292FDC
:1001A000277009F485C0213009F430C192FF64C082
:1001B000E3EAF0E090FF02C0EAEAF0E0292F221F14
:1001C0002227221F3091A200A82C231719F0209378
:1001D000A200AD2C9C01329522952F7023273F70F1
:1001E00023272F7091FF0BC21092A00030E0245003
:1001F0003F4F2F933F9308953FC14CC153C15FC1FF
:1002000068C18FC1B6C1B9C1BCC1C7C1CAC1CDC166
:10021000D3C1D8C1DBC1E9C1D092A000FC01F295E5
:10022000E295EF70EF27FF70EF27EF70F0E0EE0F31
:10023000FF1FE759FF4F80818093A4002181209305
:10024000A500E82FF0E0E757FF4F80818093A300DF
:10025000E92FEF70F0E0EE0FFF1FE759FF4F8081AD
:100260008093AB0091819093AC00E82FF0E0E757CA
:10027000FF4F80818093AA00FB018081982D8230FE
:1002800008F4D3C1823009F40FC208F0D9C1882321
:1002900009F4F4C1813009F0D7C1D7018C918823CA
:1002A00009F4FCC1FA011082AB81BC81DC92CCC1A3
:1002B0009C01329522952F7023273F7023272F70A2
:1002C000892F881F8827881F9091A2008917A1F283
:1002D0008093A200223009F45AC010F52223A9F11C
:1002E0002130E9F11092A3001092AA001092A4000C
:1002F0001092AB0082E08093A5008093AC00109236
:10030000A7001092A6001092AE001092AD0050927D
:100310009F0040929E001092A0001092A200ACCFCD
:10032000263009F44DC0273009F4A6CF2430D1F689
:100330001092A0008091AB0081113AC0C092AB0036
:10034000B092AA001092AC0097CF1092A000109229
:10035000A4001092A30084E08093A5008DCF10929A
:10036000A000E091A400E73008F086CFEF5FE093B3
:10037000A400F0E0E757FF4F80818093A3008091B5
:10038000A500823008F478CF1092A50075CF1092A6
:10039000A000E091A400EE2309F46ECFE150E093B9
:1003A000A400F0E0E757FF4F80818093A30064CF63
:1003B0001092AB001092AA0082E08093AC005CCF58
:1003C000EA2FE370A2FD02C0EA2FE460E093A100EF
:1003D0001092A3001092AA001092A4001092AB00F9
:1003E00082E08093A5008093AC001092A700109249
:1003F000A6001092AE001092AD0050929F00409265
:100400009E001092A0001092A20036CFDC01B2959F
:10041000A295AF70AB27BF70AB27D092A0008A2FF8
:10042000837090E0880F991F8F599F4FFC012081A6
:100430002093A40081818093A500822F90E08757AC
:100440009F4FFC0180818093A300EA2FE695E695FB
:10045000E370F0E0EE0FFF1FEF59FF4F80818093B4
:10046000AB0091819093AC00E82FF0E0E757FF4F8D
:1004700080818093AA0000CFAA2009F4FDCE82815A
:10048000811104C0118210829282F6CEC182B082A4
:100490001282F2CEAA2009F4EFCE8281882329F0BD
:1004A000813059F0A11002C0E7CED2828081893D0F
:1004B00008F0E2CE8F5F8083DFCE1282F7CFAA20D2
:1004C00009F4DACE8081882309F4D6CE8150808366
:1004D000D3CEAA2009F4D0CE8281823060F012827D
:1004E000882D8F5F8183811114C08281813089F4CE
:1004F000D18212820EC08181873018F492819923B3
:1005000081F38181882389F39281913011F48150A4
:100510008183818190E087579F4FDC018C9180839C
:10052000ABCEAA2009F4A8CE8281823060F0D282BC
:10053000882D8F5F8183811114C08281811111C048
:10054000D182D2820EC08181873018F4928191309D
:1005500081F38181882389F39281911102C08150B6
:100560008183818190E087579F4FDC018C9180834C
:1005700083CEC182B08212827FCEC182B082D2820B
:100580007BCEAA2009F478CEC182B082828181110B
:1005900002C0D28271CE12826FCE85E08283D58274
:1005A0006BCE85E08283158267CEAA2009F464CEE3
:1005B0008581882329F0158285E08283D6825CCEEE
:1005C000D582FACF85E08283168256CEAA2009F41E
:1005D00053CE8681882339F0168285E08283C182DA
:1005E000B082D28249CED682F8CFAA2009F444CE76
:1005F00082818130A1F71182108292823DCE822FBA
:1006000090E0880F991F87599F4FDC012C9121831F
:1006100011968C918283822F90E087579F4FDC0147
:100620008C9180831092A00027CED7019C919923B2
:1006300009F428CE2D2D993D09F4282D922F22CE94
:100640008330D9F18430B1F1DA018C918823D9F16A
:100650008FEEEB81FC812081211180613FB79923CE
:10066000A1F1D7012C9197EEF894209395009093E7
:1006700060008093940078943FBF75C0F70180813B
:10068000882331F0DA01DC92EB81FC811082DCCF2F
:10069000DA011C92EB81FC811082D6CFFA01108224
:1006A000AB81BC811C92D0CFFA011082AB81BC819E
:1006B0001C92CACFF80111821082DA01DC92EB8120
:1006C000FC81D082C1CF87EEC4CF282D922DCCCF14
:1006D00080929300F3018181813049F030F08230C3
:1006E00089F01182F301128242C0D182FBCF828154
:1006F000893030F082E08183108214821382F2CF3D
:100700001182F0CF82819DEF980F9730C0F4863030
:1007100028F083819481816094838383D3018C91B9
:100720008F5F8C93803119F411969C92DBCFF3018B
:1007300083819481880F991F94838383D3CF1182FF
:10074000D1CFACE9B0E08D919C91892B39F1FB01BF
:1007500080818430D1F1B09B4CC0D30115968C912F
:1007600015978111E0CC809193008111B1CF8091D8
:100770009200882331F380929200D8018D919C9150
:10078000119701968D939C93ECE9F0E08081918123
:10079000009721F0019791838083D3CF8091A000AF
:1007A0008823A9F21092A00082E08093A500809394
:1007B000AC001092A4001092AB00209260008091D7
:1007C0009400877E80939400C2CFD8018D919C9134
:1007D000803D974008F4BFCF82E08083E981FA81B1
:1007E000108280919400877E809394002092600014
:1007F000B2CFF89420E0B09908C088EE9DEF019741
:10080000F1F72536C0F72F5FF6CF1091A1002436FF
:1008100008F46DC081E03826E199FECF1370632D96
:1008200081E090E0E6D01093A1001092A300109216
:10083000AA001092A4001092AB0082E08093A50061
:100840008093AC001092A7001092A6001092AE0008
:100850001092AD0050929F0040929E001092A00016
:100860001092A2002092600080919400877E809375
:1008700094007894232D30E0C901880F991F880FC8
:10088000991F880F991F821B930B84569F4FBC01A1
:10089000675F7F4FAC01445F5F4FDC011D962F5FA8
:1008A0003F4F7901EE0CFF1CEE0CFF1CEE0CFF1C01
:1008B000E21AF30AF701E456FF4F7F01DD24D394D7
:1008C0008C01065F1F4F0F2EF7E0CF2EF02D0F2E5D
:1008D000F9EDBF2EF02D0F2EF3E09F2EF02D9C0191
:1008E000285F3F4F3A832983BC83AB8336CF1F5F9A
:1008F0001370E199FECF612F90E080E07AD093CF22
:100900001F920F920FB60F9211248F939F93909185
:10091000600088B3892388BB9F918F910F900FBE91
:100920000F901F9018951F920F920FB60F921124DF
:100930008F939F9380B7807F80BF98B380919400FE
:100940008871977E892B88BB809195008EBD81E050
:100950008FBD80B7866080BF9F918F910F900FBE33
:100960000F901F9018951F920F920FB60F9211249F
:100970000F900FBE0F901F90189578941F920F92B2
:100980000FB60F9211248F939F93809198008C3013
:1009900030F090919700933079F0109297008F5F2C
:1009A0008093980081E0809392009F918F910F90A7
:1009B0000FBE0F901F90189591E090939B00EDCF84
:1009C00078941F920F920FB60F9211248F9312BE3C
:1009D00081E0809393008F910F900FBE0F901F9036
:1009E0001895E199FECF9FBB8EBBE09A99278DB3F6
:1009F0000895262FE199FECF1CBA9FBB8EBB2DBB5D
:100A00000FB6F894E29AE19A0FBE01960895F89411
:020A1000FFCF16
:100A1200FF000207000701000400020100020003B8
:100A22000004000500060007000004070106010596
:100A32000104010301020101010036516C87A2BDCC
:020A4200D900D9
:00000001FF
