:1000000010C0A2C629C073C61FC6E5C5CCC5B3C5FE
:1000100023C077C621C020C01FC01EC01DC01CC089
:100020001BC011241FBECFE5D2E0DEBFCDBF10E064
:10003000A0E6B0E0E6E3FEE002C005900D92A43930
:10004000B107D9F720E0A4E9B0E001C01D92AA3BB6
:10005000B207E1F740D0EDC6D3CFFC0192819230D8
:1000600029F160F49923A9F0913039F48081882333
:10007000D1F0158281E0868308950895933021F0B0
:10008000943031F41482138281E08583868308954D
:1000900008958081882321F081E085831682089568
:1000A0001582168208951582168208951582168289
:1000B0000895FC01148282E08187808B1086178668
:1000C0008FEF80936200809361008091B900807F00
:1000D0008093B900089584B7877F84BF88E181BD8C
:1000E00081E681BD8FE08ABBD79ABA98C29AB99847
:1000F000C19A009A019A85B78F7D85BFE199FECF9D
:1001000090E080E080D6C82FE199FECF81E090E0BA
:100110007AD6CF3F09F064C08F3F09F061C0E19902
:10012000FECF60E090E080E076D6E199FECF60E01F
:1001300081E090E070D610E0C0E001E00127E4EA41
:10014000F0E0C583178216861086178692E09187A5
:10015000908B13861286128A118A24EA3CE233833A
:1001600022831482168285B78C7F826085BFDF9AD6
:100170008BB780648BBF1FBC8BE18EBD12BC2CE69D
:1001800030E035BD24BD24E130E03BBD2ABD39BDA2
:1001900028BD1DBC1CBC80E28CB9619A629A90BFDC
:1001A00093BF12BE89E686BF89B7826089BF10926D
:1001B000A3007894CEE9D0E0F12CE12C66246A9477
:1001C000552453940F2EF7E02F2EF02D68947724AA
:1001D00071F80F2EF4EAAF2EFCE2BF2EF02DEBC328
:1001E000C370182F1170A9CFF8948BB38C7F8160E6
:1001F0008BBBB19BFECF8BB38C7F8BBB10929D00D2
:1002000084EA90E056DF7894D8C31D822B813C812C
:10021000C901892F992782958F70432F55278427ED
:1002200095274FE08427A901529542954F704527A5
:100230005F704527842795278F7099272F7028177F
:10024000190609F0BDC32B813C81832F82958F70E5
:10025000837033FD84602B813C819091A9009813B9
:10026000AFC310929D00E4EAF0E082819381918314
:10027000808336FD43C0832F877009F433C18130FA
:1002800009F4E0C132FF73C0EBEAF0E030FF02C0D6
:10029000E2EBF0E0832F881F8827881F9091AA0047
:1002A00040E0981719F08093AA00452DD901B29526
:1002B000A295AF70AB27BF70AB27AF7031FFFEC206
:1002C0008AEF8A0F823008F4FCC11092A8008A2FAE
:1002D00090E082599E4F8F939F930895F5C10DC270
:1002E00019C223C22DC259C285C28DC295C2A5C2F0
:1002F000A8C2ABC2B6C2B9C2BCC2C7C2DF01548277
:10030000F901F295E295EF70EF27FF70EF27EF709C
:10031000F0E0EE0FFF1FE559FF4F808118968C9398
:100320001897818119968C9319971896EC911897C4
:10033000F0E0E557FF4F808117968C931797E32FD6
:10034000EF70F0E0EE0FFF1FE559FF4F80811F9621
:100350008C931F97818150968C9350971F96EC91A8
:100360001F97F0E0E557FF4F80811E968C93812EFA
:10037000912CF401EE0FFF1FEE0FFF1FEE0FFF1F7A
:10038000E819F909EC55FF4F8185312C823008F4CA
:10039000A8C2C02ED12CF601EE0FFF1FEE0FFF1FDB
:1003A000EE0FFF1FEC19FD09EC55FF4F8185412C25
:1003B000823008F4AFC2212F30E02F5F3F4FC901D8
:1003C000880F991F880F991F880F991F821B930B05
:1003D0008C559F4F42DE202F30E02F5F3F4FC901E9
:1003E000880F991F880F991F880F991F821B930BE5
:1003F0008C559F4F32DEF401EE0FFF1FEE0FFF1FF3
:10040000EE0FFF1FE819F909EC55FF4F848588238B
:1004100009F499C281EFF401EE0FFF1FEE0FFF1FE9
:10042000EE0FFF1FE819F909EC55FF4F9585911163
:100430008260F601EE0FFF1FEE0FFF1FEE0FFF1F92
:10044000EC19FD09EC55FF4F948591118460F6017C
:10045000EE0FFF1FEE0FFF1FEE0FFF1FEC19FD0940
:10046000EC55FF4F9585911188609FB7A701662DC8
:10047000332089F04FEF841A940AF401EE0FFF1F26
:10048000EE0FFF1FEE0FFF1FE819F909EC55FF4FA4
:10049000408150E06CEF9701762D442091F02FEFD2
:1004A000C21AD20A9601220F331F220F331F220FC6
:1004B000331F2C193D09F901EC55FF4F208130E025
:1004C00073EFF89450939C0040939B0060936200FC
:1004D00030939A0020939900709361008093B90043
:1004E0009FBF6EC2832F881F8827881F9091AA0004
:1004F000981709F43CCF8093AA00329522952F706B
:1005000023273F7023272F70223009F44AC0E0F0E0
:10051000263009F47EC0273009F429CF243009F4AD
:1005200053C0E4EAF0E08581858317821686108641
:1005300017867186708A13861286128A118AB38290
:10054000A2821482168213CF2223F1F0213049F7C0
:10055000E4EAF0E014828085873008F008CF8085D7
:100560008F5F8087A085B0E0A557BF4F8C918783B0
:100570008185813009F4FBCE8091AD00882309F498
:10058000F6CE1092AD00F3CEE4EAF0E014821086CD
:10059000A085B0E0A557BF4F8C91878384E0818709
:1005A000E6CEE4EAF0E014828085882309F4DFCE09
:1005B000DF01808581508087E085F0E0E557FF4FBF
:1005C000808117968C93D3CEE4EAF0E0148287857D
:1005D00081110DC0DF012786E785F0E0E557FF4F69
:1005E00080811E968C931E9750961C92C0CEA4EAD2
:1005F000B0E01F961C921F971F96EC911F97F0E09A
:10060000E557FF4F80811E968C931E9750967C92E3
:10061000AECE8091A90082FF13C08370E4EAF0E0BF
:10062000858317821686108617867186708A1386D0
:100630001286128A118AB382A2821482168297CEFF
:100640008460ECCF329522952F7023273F702327AB
:10065000A4EAB0E014965C921497E22FE370F0E005
:10066000EE0FFF1FED59FF4F808118968C9318975E
:10067000818119968C9319971896EC911897F0E050
:10068000E557FF4F808117968C93179726952695EF
:10069000E22FE370F0E0EE0FFF1FED59FF4F808176
:1006A0001F968C931F97818150968C9350971F961D
:1006B000EC911F97F0E0E557FF4F80811E968C93D9
:1006C00056CE5092A80003CE442309F450CE828126
:1006D00081110AC01182A181B0E0A557BF4F8C9152
:1006E000808383E0828343CE2182A181B0E0A5573D
:1006F000BF4F8C91808312823ACE442309F437CEC7
:100700008281882329F0813009F031CE12822FCEE8
:1007100052822DCE442309F42ACE80818C3608F0F3
:1007200026CE80818F5F808322CE442309F41FCEA2
:100730008081882309F41BCE80818150808317CE6D
:10074000442309F414CE8281882329F082818130E8
:1007500011F0128211828181873030F482818111FF
:1007600003C081818F5F81838181882369F08281C9
:10077000813051F4818181508183A181B0E0A557FE
:10078000BF4F8C918083F3CD81818111F6CF82811F
:10079000813099F751821282F0CF442309F4E7CDDA
:1007A0008281882329F08281813011F05282118266
:1007B0008181873030F48281813019F481818F5FAB
:1007C00081838181882369F0828181110AC08181BE
:1007D00081508183A181B0E0A557BF4F8C91808368
:1007E000C6CD81818111F6CF82818111F3CF5182F3
:1007F0005282F0CF2182A181B0E0A557BF4F8C91EA
:1008000080831282B4CD2182A181B0E0A557BF4F71
:100810008C9180835282ABCD442309F4A8CD2182F0
:10082000A181B0E0A557BF4F8C9180838281811157
:1008300002C052829CCD12829ACD95E0928355825D
:1008400096CD25E02283158292CD442309F48FCDE5
:100850008581882321F0158245E0428388CD558229
:10086000FBCF85E08283568282CD95E0928316820B
:100870007ECD442309F47BCD8681882321F0168226
:1008800025E0228374CD5682FBCF442309F46FCD3B
:100890008281813051F41182A181B0E0A557BF4F10
:1008A0008C91808343E0428362CD2182A181B0E0BC
:1008B000A557BF4F8C918083528259CDB0E0AA0FCB
:1008C000BB1FA559BF4F8C91818311968C91828358
:1008D000A181B0E0A557BF4F8C9180831092A800F2
:1008E00046CDC4010196FC01EE0FFF1FEE0FFF1F66
:1008F000EE0FFF1FE81BF90BEC55FF4F3080332044
:1009000009F447CD852D9CE6391611F0382E41CDDE
:1009100080E0FCCFC6010196FC01EE0FFF1FEE0F39
:10092000FF1FEE0FFF1FE81BF90BEC55FF4F408038
:10093000442009F440CD852D2CE6421611F0482EB6
:100940003ACD80E0FCCF80EF66CD8091970081307A
:1009500009F46DC080919700823009F46FC08091D6
:10096000A4009091A500892B21F48091A800811109
:10097000B2C0812F90E0FC01EE0FFF1FEE0FFF1FB2
:10098000EE0FFF1FE81BF90BEC55FF4F21852430BC
:1009900009F4A5C0802F90E0FC01EE0FFF1FEE0FC1
:1009A000FF1FEE0FFF1FE81BF90BEC55FF4F2185D2
:1009B000243009F4BAC0B19B17CC8D81811125CCAC
:1009C00080919800882359F210929800812F90E02E
:1009D000FC01EE0FFF1FEE0FFF1FEE0FFF1FE81BC6
:1009E000F90BEC55FF4F828593850196938782879B
:1009F000802F90E0FC01EE0FFF1FEE0FFF1FEE0FA8
:100A0000FF1FE81BF90BEC55FF4F8285938501967C
:100A1000938782878091A4009091A500009709F4A4
:100A200094CF01979093A5008093A4008ECF7092ED
:100A30009700F0929600E09295008CCFB2990AC090
:100A400080919500909196000196909396008093E6
:100A5000950085CF80919500909196008436910500
:100A600058F1CFB6F8948091950090919600843318
:100A7000954228F1912E95248091A9008370D82E5B
:100A8000E199FECF692D81E090E0C5D1012F192DAC
:100A9000E4EAF0E0D5821782168610861786718602
:100AA000708A13861286128A118AB382A2821482F5
:100AB0001682CF01FEDACFBE1092970050CFD090B1
:100AC000A900D3948D2D8370D82EE199FECF6D2D82
:100AD000C701A1D1DDCF84EA90E0EBDA4ACFFC0177
:100AE000EE0FFF1FEE0FFF1FEE0FFF1FE81BF90BAE
:100AF000EC55FF4F22853385203D374008F44ACF1F
:100B0000FC01EE0FFF1FEE0FFF1FEE0FFF1FE81B94
:100B1000F90BEC55FF4F718610868091B9008C7FE0
:100B20008093B9006092620035CFFC01EE0FFF1F89
:100B3000EE0FFF1FEE0FFF1FE81BF90BEC55FF4FE9
:100B400022853385203D374008F435CFFC01EE0F78
:100B5000FF1FEE0FFF1FEE0FFF1FE81BF90BEC55F9
:100B6000FF4F718610868091B900837F8093B90012
:100B70006092610020CF1F920F920FB60F92112446
:100B80002F938F939F9380916100209160009BB37E
:100B9000822389238BBB9F918F912F910F900FBE42
:100BA0000F901F9018951F920F920FB60F9211245D
:100BB0002F938F939F9380916200209160009BB34D
:100BC000822389238BBB9F918F912F910F900FBE12
:100BD0000F901F9018951F920F920FB60F9211242D
:100BE0008F939F938BB39091B900807F9F70892BD7
:100BF0008BBB80919B0090919C009BBD8ABD809196
:100C0000990090919A0099BD88BD90916200809161
:100C10006100981751F08FEF809360009F918F9142
:100C20000F900FBE0F901F901895809162009091C9
:100C300061008923809360008091990090919A00CF
:100C4000019699BD88BDEACF1F920F920FB60F9201
:100C500011242F933F934F935F936F937F938F93C1
:100C60009F93AF93BF93EF93FF9380919D008F5F0E
:100C700080939D0080919D00803188F4FF91EF91D9
:100C8000BF91AF919F918F917F916F915F914F91A4
:100C90003F912F910F900FBE0F901F90189584EAEF
:100CA00090E007DA8BB78F7B8BBFDF988BB3909187
:100CB000B900807F9F70892B8BBBC29882E080BD7A
:100CC0008BB780628BBF98E191BD11BC85B7877EE1
:100CD000806185BF85B7806285BF7894889585B728
:100CE0008F7D85BFF89491BD88E081BDFFCF1F92B5
:100CF0000F920FB60F9211240F900FBE0F901F90FE
:100D0000189578941F920F920FB60F9211248F931B
:100D10009F938091A0008C3030F090919F00933091
:100D200079F010929F008F5F8093A00081E0809304
:100D300098009F918F910F900FBE0F901F90189564
:100D400091E09093A300EDCF78941F920F920FB68D
:100D50000F9211248F939F93EF93FF9312BE809174
:100D60009700811103C081E08093970080919F00DC
:100D70008130A1F078F0823001F110929F00109242
:100D8000A000FF91EF919F918F910F900FBE0F9058
:100D90001F90189581E080939F00F1CF8091A00073
:100DA000893040F0EEE9F0E082E081831082148225
:100DB0001382E5CF10929F00E2CF8091A0009DEFBB
:100DC000980F9730E8F4863038F0EEE9F0E0838150
:100DD0009481816094838383EEE9F0E080818F5F6A
:100DE0008083803149F0EEE9F0E083819481880FBF
:100DF000991F94838383C3CF83E080939F00BFCFE9
:100E000010929F00BCCFE199FECF9FBB8EBBE09AB2
:100E100099278DB30895262FE199FECF1CBA9FBB69
:100E20008EBB2DBB0FB6F894E29AE19A0FBE0196E5
:060E30000895F894FFCFC5
:100E3600FFFFFF0002070007010004000201000295
:100E46000003000400050006000700000407010671
:100E56000105010401030102010101001A273441C1
:040E66004E5B6C0073
:00000001FF
