:100000000EC0D0C5A2C524C536C524C023C022C099
:1000100021C020C0A4C51EC046C51CC01BC01124E1
:100020001FBECFE5D2E0DEBFCDBF10E0A0E6B0E05E
:10003000E2E9FCE002C005900D92A239B107D9F7C0
:1000400020E0A2E9B0E001C01D92A53BB207E1F7B4
:1000500012D01DC6D5CFFC01148282E08187808B2F
:10006000108617868FEF809360008091B4008C7F9C
:100070008093B400089584B7877F84BF88E181BDF1
:1000800081E681BD83E187BB18BABA98C29ABB9852
:10009000C39A80B5816080BD80B5826080BD85B720
:1000A0008F7D85BFE199FECF90E080E0DAD5C82F43
:1000B000C370E199FECF81E090E0D3D5182F117085
:1000C000EFE9F0E0C583178216861086178692E066
:1000D0009187908B13861286128A118A24EA3CE259
:1000E000338322831482168285B78C7F826085BF1A
:1000F000C49A8BB780648BBF86E480BF89ED8DBDC9
:100100001EBC1FBC89B7846089BF89B7806489BF62
:100110009ABD93BF12BE89E689BD89B7806189BF48
:1001200010929E007894C9E9D0E0EE24EA940F2E54
:10013000FCEF6F2EF02DBB24B3940F2EF7E09F2E13
:10014000F02D0F2EF9ED7F2EF02D0F2EF3E05F2E08
:10015000F02D0F2EF5E08F2EF02D0F2EF6EA2F2E1C
:10016000F0E03F2EF02D02E00F2EF4EACF2EFCE25D
:10017000DF2EF02D6894442442F8C2C3F89488B36B
:100180008C7F816088BBB39BFECF88B38C7F88BB9C
:10019000109298008FE990E05EDF7894B3C31D82DF
:1001A0002B813C81C901892F992782958F70432F1C
:1001B0005527842795274FE08427A901529542951A
:1001C0004F7045275F704527842795278F709927A3
:1001D0002F702817190609F098C32B813C81832FB3
:1001E00082958F70837033FD84602B813C81909168
:1001F000A40098138AC310929800EFE9F0E082817E
:1002000093819183808336FD3CC0832F877009F4EE
:1002100093C0813009F43DC132FF6CC0F10130FF61
:1002200002C0EDEAF0E0832F881F8827881F909195
:10023000A50040E0891719F08093A5004B2DC90156
:10024000929582958F7089279F7089278F7031FFD3
:100250001DC21092A30090E08F5C9E4F8F939F93DE
:10026000089556C163C16AC177C180C1A7C1CDC11C
:10027000D0C1D3C1DEC1E0C1E2C1E8C1ECC1EEC171
:10028000FBC1DF01B482F901F295E295EF70EF272F
:10029000FF70EF27EF70F0E0EE0FFF1FE759FF4F01
:1002A000808118968C931897818119968C93199751
:1002B0001896EC911897F0E0E757FF4F808117965A
:1002C0008C931797E32FEF70F0E0EE0FFF1FE759C5
:1002D000FF4F80811F968C931F97818150968C933E
:1002E00050971F96EC911F97F0E0E757FF4F8081E2
:1002F0001E968C93812F90E0FC01EE0FFF1FEE0FF6
:10030000FF1FEE0FFF1FE81BF90BE156FF4F218582
:10031000222309F4CFC1FC01EE0FFF1FEE0FFF1FD8
:10032000EE0FFF1FE81BF90BE156FF4F218521302F
:1003300009F4C0C120E0E4C1832F881F8827881FEB
:100340009091A5008917B1F28093A500329522956E
:100350002F7023273F7023272F70223009F448C0C5
:10036000D8F0263009F47CC0273021F2243009F47B
:1003700052C0EFE9F0E085818583178216861086EA
:1003800017860187008B13861286128A118AD38200
:10039000C28214821682AECF2223F1F0213049F7B7
:1003A000EFE9F0E014828085873008F0A3CF8085E4
:1003B0008F5F8087A085B0E0A757BF4F8C91878360
:1003C0008185813009F496CF8091A800882309F4B3
:1003D00091CF1092A8008ECFEFE9F0E01482108642
:1003E000A085B0E0A757BF4F8C918783418682CF0D
:1003F000EFE9F0E014828085882309F47BCFDF01E8
:10040000808581508087E085F0E0E757FF4F80814D
:1004100017968C936FCFEFE9F0E0148287858111F6
:100420000DC0DF019786E785F0E0E757FF4F808139
:100430001E968C931E9750961C925CCFAFE9B0E04D
:100440001F961C921F971F96EC911F97F0E0E7579D
:10045000FF4F80811E968C931E9750960C934ACF27
:100460008091A40082FF13C08370EFE9F0E08583E0
:1004700017821686108617860187008B13861286D0
:10048000128A118AD382C2821482168233CF846088
:10049000ECCF329522952F7023273F702327AFE9A9
:1004A000B0E01496BC921497E22FE370F0E0EE0FE8
:1004B000FF1FEF59FF4F808118968C931897818109
:1004C00019968C9319971896EC911897F0E0E757C6
:1004D000FF4F808117968C93179726952695E22FCC
:1004E000E370F0E0EE0FFF1FEF59FF4F80811F9682
:1004F0008C931F97818150968C9350971F96EC9107
:100500001F97F0E0E757FF4F80811E968C93F2CE45
:10051000442309F4EFCE8281811104C0118210823C
:100520005282E8CE918270821282E4CE442309F492
:10053000E1CE8281882361F0813061F0442309F4A7
:10054000D9CE8081893D08F0D5CE8F5F8083D2CE11
:10055000B282F7CF1282F5CF442309F4CBCE80814B
:10056000882309F4C7CE81508083C4CE442309F484
:10057000C1CE8281823068F0128280E08F5F8183F9
:10058000811110C0A181B0E0A757BF4F8C9180832B
:10059000B1CE8181873018F49281992379F38181DA
:1005A000882331F09281913069F781508183EACFBD
:1005B0008281813039F7B1821282E4CF442309F479
:1005C00099CE8281823060F0B28280E08F5F818339
:1005D000811114C08281811111C0B182B2820EC01A
:1005E0008181873018F49281913081F38181882351
:1005F00089F39281911102C081508183A181B0E081
:10060000A757BF4F8C91808375CE918270821282E2
:1006100071CE91827082B2826DCE442309F46ACE8B
:10062000918270828281811102C0B28263CE128275
:1006300061CE8282B5825ECE828215825BCE4423F9
:1006400009F458CE8581882321F015828282B682F2
:1006500051CEB582FBCF828216824CCE442309F460
:1006600049CE8681882331F01682828291827082FF
:10067000B28240CEB682F9CF442309F43BCE8281C8
:100680008130A1F711821082528234CEA82FB0E0BF
:10069000AA0FBB1FA759BF4F8C91818311969C91C4
:1006A0009283A82FB0E0A757BF4F8C918083109200
:1006B000A30020CE9C012F5F3F4FF901EE0FFF1FDB
:1006C000EE0FFF1FEE0FFF1FE21BF30BE156FF4F74
:1006D00020812223A1F09C012F5F3F4FF901EE0FF3
:1006E000FF1FEE0FFF1FEE0FFF1FE21BF30BE15684
:1006F000FF4F30812B2D393D19F420E001C020E05F
:10070000FC01EE0FFF1FEE0FFF1FEE0FFF1FE81B98
:10071000F90BE156FF4F3185323009F4B9C028F5A5
:10072000332309F47AC03130F1F5AC014F5F5F4FEC
:10073000FA01EE0FFF1FEE0FFF1FEE0FFF1FE41B6E
:10074000F50BE156FF4F3081332309F493C0FC01D0
:10075000EE0FFF1FEE0FFF1FEE0FFF1FE81BF90B41
:10076000E156FF4F1486B5861EC0333079F0343021
:10077000D1F4FC01EE0FFF1FEE0FFF1FEE0FFF1F66
:10078000E81BF90BE156FF4F13861286FC01EE0FB2
:10079000FF1FEE0FFF1FEE0FFF1FE81BF90BE156C7
:1007A000FF4FB486B586FC01EE0FFF1FEE0FFF1F53
:1007B000EE0FFF1FE81BF90BE156FF4F3485332383
:1007C00009F474C03DEFFC01EE0FFF1FEE0FFF1F99
:1007D000EE0FFF1FE81BF90BE156FF4F4585411156
:1007E00032604FB7222309F463C00196FC01EE0F7B
:1007F000FF1FEE0FFF1FEE0FFF1FE81BF90BE15667
:10080000FF4F9081862DF89490939700809360001D
:100810003093B40078944FBF78C0AC014F5F5F4F06
:10082000FA01EE0FFF1FEE0FFF1FEE0FFF1FE41B7D
:10083000F50BE156FF4F3081332371F0FC01EE0FD1
:10084000FF1FEE0FFF1FEE0FFF1FE81BF90BE15616
:10085000FF4FB4861586A7CFFC01EE0FFF1FEE0FEA
:10086000FF1FEE0FFF1FE81BF90BE156FF4F148629
:10087000158699CFFC01EE0FFF1FEE0FFF1FEE0F45
:10088000FF1FE81BF90BE156FF4F148615868BCF2F
:10089000FC01EE0FFF1FEE0FFF1FEE0FFF1FE81B07
:1008A000F90BE156FF4F148615867DCF3CEF8BCFB9
:1008B00090E08E2DA8CF80919500813009F44CC036
:1008C00080919500823009F44EC080919F009091F4
:1008D000A000892B21F48091A30081118FC0812F6A
:1008E00090E0FC01EE0FFF1FEE0FFF1FEE0FFF1F4A
:1008F000E81BF90BE156FF4F2185243009F482C033
:10090000B39B3CCC8D8181114ACC80919600882389
:10091000E1F210929600812F90E0FC01EE0FFF1F94
:10092000EE0FFF1FEE0FFF1FE81BF90BE156FF4F05
:100930008285938501969387828780919F0090910D
:10094000A000892B09F4B7CFEFE9F0E08081918115
:10095000019791838083AFCF00939500109294000C
:1009600010929300ADCFB2990AC0809193009091FC
:10097000940001969093940080939300A6CF809169
:100980009300909194008436910540F1AFB6F894AD
:1009900080919300909194008433954210F11B252F
:1009A0008091A4008370F82EE199FECF612F81E041
:1009B00090E05FD1EFE9F0E0F582178216861086AD
:1009C00017860187008B13861286128A118AD382BA
:1009D000C28214821682CF013EDBAFBE1092950018
:1009E00074CFF090A400F3944F2D4370F42EE1994E
:1009F000FECF6F2D90E080E03CD1DCCF8FE990E01E
:100A00002ADB6DCFFC01EE0FFF1FEE0FFF1FEE0F75
:100A1000FF1FE81BF90BE156FF4F22853385203D70
:100A2000374008F46DCFFC01EE0FFF1FEE0FFF1FE4
:100A3000EE0FFF1FE81BF90BE156FF4F01871086F1
:100A40008091B4008C7F8093B400E092600058CF16
:100A50001F920F920FB60F9211248F939F93909134
:100A6000600088B3892388BB9F918F910F900FBE40
:100A70000F901F9018951F920F920FB60F9211248E
:100A80008F939F9388B39091B4008C7F9370892B40
:100A900088BB809197008EBD9F918F910F900FBE64
:100AA0000F901F9018951F920F920FB60F9211245E
:100AB0002F933F934F935F936F937F938F939F9366
:100AC000AF93BF93EF93FF93809198008F5F8093D4
:100AD000980080919800803188F4FF91EF91BF9148
:100AE000AF919F918F917F916F915F914F913F91C6
:100AF0002F910F900FBE0F901F9018958FE990E0E7
:100B0000AADA8BB78F7B8BBFC49888B39091B4005F
:100B10008C7F9370892B88BBC29898E095BB8BB76C
:100B200080628BBF28E121BD11BC85B7877E8061C3
:100B300085BF85B7806285BF7894889585B78F7D9E
:100B400085BFF89421BD91BDFFCF1F920F920FB6C4
:100B50000F9211240F900FBE0F901F90189578944C
:100B60001F920F920FB60F9211248F939F93809133
:100B70009B008C3030F090919A00933079F0109275
:100B80009A008F5F80939B0081E0809396009F91F5
:100B90008F910F900FBE0F901F90189591E090933A
:100BA0009E00EDCF78941F920F920FB60F921124F2
:100BB0008F939F93EF93FF9312BE809195008111C5
:100BC00003C081E08093950080919A008130A1F06C
:100BD00078F0823001F110929A0010929B00FF9100
:100BE000EF919F918F910F900FBE0F901F901895CE
:100BF00081E080939A00F1CF80919B00893040F092
:100C0000E9E9F0E082E08183108214821382E5CF6B
:100C100010929A00E2CF80919B009DEF980F973041
:100C2000E8F4863038F0E9E9F0E08381948181606E
:100C300094838383E9E9F0E080818F5F8083803152
:100C400049F0E9E9F0E083819481880F991F94834A
:100C50008383C3CF83E080939A00BFCF10929A0022
:100C6000BCCFE199FECF9FBB8EBBE09A99278DB395
:100C70000895262FE199FECF1CBA9FBB8EBB2DBBDA
:100C80000FB6F894E29AE19A0FBE01960895F8948F
:020C9000FFCF94
:100C9200FF00020700070100040002010002000336
:100CA2000004000500060007000004070106010514
:100CB2000104010301020101010036516C87A2BD4A
:020CC200D90057
:00000001FF
