:100000000EC0F7C5C9C54BC55DC524C023C022C0FD
:1000100021C020C0CBC51EC06DC51CC01BC0112493
:100020001FBECFE5D2E0DEBFCDBF10E0A0E6B0E05E
:10003000E0EEFCE002C005900D92A239B107D9F7BD
:1000400020E0A2E9B0E001C01D92A53BB207E1F7B4
:1000500012D044C6D5CFFC01148282E08187808B08
:10006000108617868FEF809360008091B4008C7F9C
:100070008093B400089584B7877F84BF88E181BDF1
:1000800081E681BD83E087BBBC9ABA98C29ABB98CF
:10009000C39A80B5816080BD80B5826080BD85B720
:1000A0008F7D85BFE199FECF90E080E001D6C82F1B
:1000B000E199FECF81E090E0FBD5CF3F09F06EC023
:1000C0008F3F09F06BC0E199FECF60E090E080E0E7
:1000D000F7D5E199FECF60E081E090E0F1D510E046
:1000E000C0E0EFE9F0E0C583178216861086178618
:1000F00092E09187908B13861286128A118A24EAE5
:100100003CE2338322831482168285B78C7F82601F
:1001100085BFC49A8BB780648BBF86E480BF89EDAE
:100120008DBD1EBC1FBC89B7846089BF89B7806440
:1001300089BF9ABD93BF12BE89E689BD89B7806128
:1001400089BF10929E007894C9E9D0E0CC24CA946B
:100150000F2EFCEF7F2EF02DBB24B3940F2EF7E073
:100160008F2EF02D0F2EF3E06F2EF02D0F2EF5E0D9
:100170009F2EF02D0F2EFDEA4F2EF0E05F2EF02D7A
:100180000F2EF6EA2F2EF0E03F2EF02D02E00F2E7C
:10019000F4EAEF2EFCE2FF2EF02DDBC3C370182F24
:1001A00011709FCFF89488B38C7F816088BBB39B1C
:1001B000FECF88B38C7F88BB109298008FE990E0C7
:1001C0004ADF7894C8C31D822B813C81C901892FE5
:1001D000992782958F70432F5527842795274FE0C5
:1001E0008427A901529542954F7045275F70452796
:1001F000842795278F7099272F702817190609F0E3
:10020000ADC32B813C81832F82958F70837033FD2A
:1002100084602B813C819091A40098139FC310921D
:100220009800EFE9F0E0828193819183808336FD2D
:1002300040C0832F877009F4B2C0813009F45FC1D8
:1002400032FF70C0F10130FDF201832F881F882733
:10025000881F9091A50040E0891719F08093A500B0
:100260004B2DD901B295A295AF70AB27BF70AB27CC
:10027000AF7031FF78C28AEF8A0F823008F47EC1F6
:100280001092A3008A2F90E0875B9E4F8F939F93DD
:10029000089577C18EC19AC1A4C1AEC1DAC106C2A8
:1002A0000EC216C226C228C22AC234C236C238C200
:1002B00042C2DF01B482F901F295E295EF70EF27B7
:1002C000FF70EF27EF70F0E0EE0FFF1FE759FF4FD1
:1002D000808118968C931897818119968C93199721
:1002E0001896EC911897F0E0E757FF4F808117962A
:1002F0008C931797E32FEF70F0E0EE0FFF1FE75995
:10030000FF4F80811F968C931F97818150968C930D
:1003100050971F96EC911F97F0E0E757FF4F8081B1
:100320001E968C93812F90E0FC01EE0FFF1FEE0FC5
:10033000FF1FEE0FFF1FE81BF90BE156FF4F318542
:1003400020E0323008F422C2323009F4CAC208F088
:1003500036C2332309F48AC2313009F04EC2AC01EF
:100360004F5F5F4FFA01EE0FFF1FEE0FFF1FEE0F03
:10037000FF1FE41BF50BE156FF4F3081332309F4D7
:10038000A2C2FC01EE0FFF1FEE0FFF1FEE0FFF1FBB
:10039000E81BF90BE156FF4F1486B5862EC2832F5A
:1003A000881F8827881F9091A500891709F4BACF64
:1003B0008093A500329522952F7023273F70232725
:1003C0002F70223009F44AC0E0F0263009F47EC0D4
:1003D000273009F4A7CF243009F453C0EFE9F0E047
:1003E0008581858317821686108617860187008B84
:1003F00013861286128A118AF382E282148216828E
:1004000091CF2223F1F0213049F7EFE9F0E0148297
:100410008085873008F086CF80858F5F8087A085B4
:10042000B0E0A757BF4F8C9187838185813009F455
:1004300079CF8091A800882309F474CF1092A80086
:1004400071CFEFE9F0E014821086A085B0E0A757E5
:10045000BF4F8C91878384E0818764CFEFE9F0E020
:1004600014828085882309F45DCFDF018085815067
:100470008087E085F0E0E757FF4F808117968C93E7
:1004800051CFEFE9F0E01482878581110DC0DF01C3
:100490008786E785F0E0E757FF4F80811E968C93B3
:1004A0001E9750961C923ECFAFE9B0E01F961C926B
:1004B0001F971F96EC911F97F0E0E757FF4F808141
:1004C0001E968C931E9750960C932CCF8091A4006F
:1004D00082FF13C08370EFE9F0E0858317821686F0
:1004E000108617860187008B13861286128A118A5E
:1004F000F382E2821482168215CF8460ECCF3295AB
:1005000022952F7023273F702327AFE9B0E0149680
:10051000BC921497E22FE370F0E0EE0FFF1FEF594B
:10052000FF4F808118968C931897818119968C9330
:1005300019971896EC911897F0E0E757FF4F8081D4
:1005400017968C93179726952695E22FE370F0E087
:10055000EE0FFF1FEF59FF4F80811F968C931F975F
:10056000818150968C9350971F96EC911F97F0E0E5
:10057000E757FF4F80811E968C93D4CEB092A30094
:1005800081CE442309F4CECE8281811109C011822B
:10059000A181B0E0A757BF4F8C9180836282C2CE09
:1005A0008182A181B0E0A757BF4F8C9180831282D6
:1005B000B9CE442309F4B6CE8281882329F0813054
:1005C00009F0B0CE1282AECEB282ACCE442309F492
:1005D000A9CE8081893D08F0A5CE80818F5F808380
:1005E000A1CE442309F49ECE8081882309F49ACEBB
:1005F00080818150808396CE442309F493CE8281FA
:10060000882329F08281813011F012821182818148
:10061000873030F48281811103C081818F5F8183B3
:100620008181882369F08281813051F481818150F8
:100630008183A181B0E0A757BF4F8C91808372CE98
:1006400081818111F6CF8281813099F7B182128246
:10065000F0CF442309F466CE8281882329F0828179
:10066000813011F0B28211828181873030F4828131
:10067000813019F481818F5F81838181882369F0C2
:10068000828181110AC0818181508183A181B0E082
:10069000A757BF4F8C91808345CE81818111F6CFC2
:1006A00082818111F3CFB182B282F0CF8182A181A8
:1006B000B0E0A757BF4F8C918083128233CE8182E6
:1006C000A181B0E0A757BF4F8C918083B2822ACE20
:1006D000442309F427CE8182A181B0E0A757BF4F00
:1006E0008C9180838281811102C0B2821BCE1282E2
:1006F00019CE9282B58216CE9282158213CE4423F1
:1007000009F410CE8581882319F0158292820ACED1
:10071000B582FCCF9282B68205CE9282168202CE3C
:10072000442309F4FFCD8681882319F01682928232
:10073000F9CDB682FCCF442309F4F4CD8281813017
:1007400049F41182A181B0E0A757BF4F8C918083FB
:100750006282E8CD8182A181B0E0A757BF4F8C9122
:100760008083B282DFCDB0E0AA0FBB1FA759BF4F75
:100770008C91818311968C918283A181B0E0A757DF
:10078000BF4F8C9180831092A300CCCDAC014F5F02
:100790005F4FFA01EE0FFF1FEE0FFF1FEE0FFF1F5F
:1007A000E41BF50BE156FF4F2081222309F4CCCD49
:1007B0004B2D293D11F0242FC7CD40E0FCCF333025
:1007C00079F03430D1F4FC01EE0FFF1FEE0FFF1F64
:1007D000EE0FFF1FE81BF90BE156FF4F1386128641
:1007E000FC01EE0FFF1FEE0FFF1FEE0FFF1FE81BB8
:1007F000F90BE156FF4FB486B586FC01EE0FFF1FE3
:10080000EE0FFF1FEE0FFF1FE81BF90BE156FF4F26
:100810003485332309F473C03DEFFC01EE0FFF1F55
:10082000EE0FFF1FEE0FFF1FE81BF90BE156FF4F06
:100830004585411132604FB7222309F462C0019609
:10084000FC01EE0FFF1FEE0FFF1FEE0FFF1FE81B57
:10085000F90BE156FF4F9081872DF8949093970004
:10086000809360003093B4004FBF78C0AC014F5FFD
:100870005F4FFA01EE0FFF1FEE0FFF1FEE0FFF1F7E
:10088000E41BF50BE156FF4F3081332371F0FC017F
:10089000EE0FFF1FEE0FFF1FEE0FFF1FE81BF90B00
:1008A000E156FF4FB4861586A8CFFC01EE0FFF1F5F
:1008B000EE0FFF1FEE0FFF1FE81BF90BE156FF4F76
:1008C000148615869ACFFC01EE0FFF1FEE0FFF1F57
:1008D000EE0FFF1FE81BF90BE156FF4F148615863C
:1008E0008CCFFC01EE0FFF1FEE0FFF1FEE0FFF1F5F
:1008F000E81BF90BE156FF4F148615867ECF3CEFBF
:100900008CCF90E08C2DA9CF80919500813009F497
:100910004AC080919500823009F44CC080919F00BC
:100920009091A000892B21F48091A30081118DC0AA
:10093000812F90E0FC01EE0FFF1FEE0FFF1FEE0F67
:10094000FF1FE81BF90BE156FF4F2185243009F406
:1009500080C0B39B27CC8D81811135CC80919600CE
:100960008823E1F210929600812F90E0FC01EE0FB7
:10097000FF1FEE0FFF1FEE0FFF1FE81BF90BE156E5
:10098000FF4F8285938501969387828780919F0090
:100990009091A000009709F4B7CF01979093A00021
:1009A00080939F00B1CF0093950010929400109215
:1009B0009300AFCFB2990AC08091930090919400B8
:1009C00001969093940080939300A8CF8091930018
:1009D000909194008436910540F1AFB6F8948091DF
:1009E0009300909194008433954210F11B258091DF
:1009F000A4008370D82EE199FECF612F81E090E0B2
:100A00005FD1EFE9F0E0D58217821686108617864F
:100A10000187008B13861286128A118AF382E28282
:100A200014821682CF0117DBAFBE1092950076CFED
:100A3000D090A400D3944D2D4370D42EE199FECFD5
:100A40006D2D90E080E03CD1DCCF8FE990E003DBBE
:100A50006FCFFC01EE0FFF1FEE0FFF1FEE0FFF1F0A
:100A6000E81BF90BE156FF4F22853385203D3740C7
:100A700008F46FCFFC01EE0FFF1FEE0FFF1FEE0F0C
:100A8000FF1FE81BF90BE156FF4F0187108680918D
:100A9000B4008C7F8093B400C09260005ACF1F9244
:100AA0000F920FB60F9211248F939F939091600035
:100AB00088B3892388BB9F918F910F900FBE0F90B1
:100AC0001F9018951F920F920FB60F9211248F93BB
:100AD0009F9388B39091B4008C7F9370892B88BBCF
:100AE000809197008EBD9F918F910F900FBE0F90B8
:100AF0001F9018951F920F920FB60F9211242F93EB
:100B00003F934F935F936F937F938F939F93AF9395
:100B1000BF93EF93FF93809198008F5F809398002D
:100B200080919800803188F4FF91EF91BF91AF914F
:100B30009F918F917F916F915F914F913F912F91F5
:100B40000F900FBE0F901F9018958FE990E083DAF9
:100B50008BB78F7B8BBFC49888B39091B4008C7F88
:100B60009370892B88BBC29898E095BB8BB7806245
:100B70008BBF28E121BD11BC85B7877E806185BF11
:100B800085B7806285BF7894889585B78F7D85BF4E
:100B9000F89421BD91BDFFCF1F920F920FB60F9217
:100BA00011240F900FBE0F901F90189578941F92EC
:100BB0000F920FB60F9211248F939F9380919B00F9
:100BC0008C3030F090919A00933079F010929A0026
:100BD0008F5F80939B0081E0809396009F918F911F
:100BE0000F900FBE0F901F90189591E090939E006C
:100BF000EDCF78941F920F920FB60F9211248F931E
:100C00009F93EF93FF9312BE80919500811103C0D3
:100C100081E08093950080919A008130A1F078F076
:100C2000823001F110929A0010929B00FF91EF9197
:100C30009F918F910F900FBE0F901F90189581E09C
:100C400080939A00F1CF80919B00893040F0E9E9D0
:100C5000F0E082E08183108214821382E5CF10924B
:100C60009A00E2CF80919B009DEF980F9730E8F4B7
:100C7000863038F0E9E9F0E08381948181609483E3
:100C80008383E9E9F0E080818F5F8083803149F0E0
:100C9000E9E9F0E083819481880F991F948383832D
:100CA000C3CF83E080939A00BFCF10929A00BCCF4D
:100CB000E199FECF9FBB8EBBE09A99278DB3089533
:100CC000262FE199FECF1CBA9FBB8EBB2DBB0FB662
:100CD000F894E29AE19A0FBE01960895F894FFCF36
:100CE000FF000207000701000400020100020003E8
:100CF00000040005000600070000040701060105C6
:100D00000104010301020101010036516C87A2BDFB
:020D1000D90008
:00000001FF
